:100000000C94E8030C9405040C9405040C942E2B1A
:100010000C945D350C9405040C9405040C940504B3
:100020000C9405040C9405040C9405040C94E61D32
:100030000C9405040C9405040C9405040C9405041C
:100040000C948F160C9405040C9427140C94E21352
:100050000C9405040C9405040C9405040C940504FC
:100060000C9405040C940504892190219321962178
:100070009B21A521B121262226222622BB21BE2199
:10008000C721D021262226222622262226222622E7
:10009000DA21E821F621002203220C2215221A225D
:1000A000084AD73B3BCE016E84BCBFFDC12F3D6CDF
:1000B00074319ABD56833DDA3D00C77F11BED9E445
:1000C000BB4C3E916BAAAABE000000803F05A84C25
:1000D000CDB2D44EB93836A9020C50B991868808F1
:1000E0003CA6AAAA2ABE000000803F3E0D0A002CB2
:1000F0004C696D3A002C52583A002C4275663A0011
:100100002C002C57506F733A002C002C4D506F73FD
:100110003A003C446F6F72003C436865636B003C7F
:10012000416C61726D003C486F6D65003C486F6CBE
:1001300064003C52756E003C49646C65005D0D0ABC
:10014000005B6563686F3A20005D0D0A005B302E2E
:10015000396A2E32303136303732363A000D0A00E5
:100160003D00244E005D0D0A002053002046002073
:100170005400204D3800204D3900204D3500204DD1
:100180003400204D3300204D3200204D3100204DF1
:1001900030002047393400204739330020473931B7
:1001A00000204739300020473230002047323100EC
:1001B00020473139002047313800204731370020AF
:1001C00047004733382E0047383000473300473266
:1001D000004731004730005B005D0D0A005B544C66
:1001E0004F3A005D0D0A002C005B4739323A005D42
:1001F0000D0A002C003A003330003238005B470013
:100200005D0D0A003A002C005B5052423A00290D65
:100210000A00206D61782074726176656C2C206D07
:100220006D0020616363656C2C206D6D2F736563B9
:100230005E3200206D617820726174652C206D6DD6
:100240002F6D696E002C20737465702F6D6D007AB0
:1002500000790078002028003D0024002028686FE5
:100260006D696E672070756C6C2D6F66662C206DE5
:100270006D290D0A002028686F6D696E672064651E
:10028000626F756E63652C206D736563290D0A249A
:1002900032373D002028686F6D696E672073656591
:1002A0006B2C206D6D2F6D696E290D0A2432363D41
:1002B000002028686F6D696E6720666565642C2074
:1002C0006D6D2F6D696E290D0A2432353D00290DA3
:1002D0000A2432343D002028686F6D696E672064FF
:1002E000697220696E76657274206D61736B3A0075
:1002F0002028686F6D696E67206379636C652C20B8
:10030000626F6F6C290D0A2432333D00202868612A
:100310007264206C696D6974732C20626F6F6C2934
:100320000D0A2432323D002028736F6674206C69F8
:100330006D6974732C20626F6F6C290D0A24323141
:100340003D0020287265706F727420696E63686565
:10035000732C20626F6F6C290D0A2432303D00200F
:100360002861726320746F6C6572616E63652C2006
:100370006D6D290D0A2431333D0020286A756E63A6
:1003800074696F6E20646576696174696F6E2C2084
:100390006D6D290D0A2431323D00290D0A243131B9
:1003A0003D002028737461747573207265706F72DC
:1003B00074206D61736B3A00202870726F62652043
:1003C00070696E20696E766572742C20626F6F6C36
:1003D000290D0A2431303D0020286C696D69742094
:1003E00070696E7320696E766572742C20626F6F0F
:1003F0006C290D0A24363D00202873746570206531
:100400006E61626C6520696E766572742C20626F15
:100410006F6C290D0A24353D00290D0A24343D0056
:10042000202864697220706F727420696E7665721C
:1004300074206D61736B3A00290D0A24333D00204E
:10044000287374657020706F727420696E7665729F
:1004500074206D61736B3A00202873746570206995
:10046000646C652064656C61792C206D736563290B
:100470000D0A24323D002028737465702070756C5D
:1004800073652C2075736563290D0A24313D0024A2
:10049000303D002424202876696577204772626CFD
:1004A0002073657474696E6773290D0A24232028EC
:1004B00076696577202320706172616D657465725D
:1004C00073290D0A244720287669657720706172A8
:1004D000736572207374617465290D0A244920289C
:1004E00076696577206275696C6420696E666F292C
:1004F0000D0A244E20287669657720737461727422
:10050000757020626C6F636B73290D0A24783D76D9
:10051000616C7565202873617665204772626C2076
:1005200073657474696E67290D0A244E783D6C6991
:100530006E652028736176652073746172747570BE
:1005400020626C6F636B290D0A2443202863686561
:10055000636B2067636F6465206D6F6465290D0AA6
:10056000245820286B696C6C20616C61726D206C62
:100570006F636B290D0A2448202872756E20686FFE
:100580006D696E67206379636C65290D0A7E20288A
:100590006379636C65207374617274290D0A21207C
:1005A000286665656420686F6C64290D0A3F202801
:1005B00063757272656E7420737461747573290D3E
:1005C0000A6374726C2D78202872657365742047F5
:1005D00072626C290D0A000D0A4772626C20302E7F
:1005E000396A205B27242720666F722068656C704B
:1005F0005D0D0A005D0D0A00526573746F72696EBD
:10060000672064656661756C74730050676D204582
:100610006E6400436865636B20446F6F72004469C9
:100620007361626C656400456E61626C6564004371
:10063000617574696F6E3A20556E6C6F636B65649B
:1006400000272448277C2724582720746F20756EA4
:100650006C6F636B00526573657420746F20636FF9
:100660006E74696E7565005B000D0A00486F6D69F8
:100670006E67206661696C0050726F62652066610A
:10068000696C0041626F727420647572696E6720D4
:100690006379636C6500536F6674206C696D69746F
:1006A0000048617264206C696D697400414C41526C
:1006B0004D3A20000D0A00496E76616C696420672E
:1006C000636F64652049443A00556E646566696EDF
:1006D00065642066656564207261746500556E739B
:1006E0007570706F7274656420636F6D6D616E6498
:1006F000004D6F64616C2067726F75702076696F52
:100700006C6174696F6E004C696E65206F766572FE
:10071000666C6F7700486F6D696E67206E6F74202E
:10072000656E61626C656400416C61726D206C6F16
:10073000636B004E6F742069646C650045455052D0
:100740004F4D2072656164206661696C2E2055737F
:10075000696E672064656661756C74730056616CC0
:100760007565203C20332075736563005365747490
:10077000696E672064697361626C65640056616CC0
:100780007565203C203000496E76616C6964207389
:10079000746174656D656E7400426164206E756D80
:1007A00062657220666F726D617400457870656372
:1007B00074656420636F6D6D616E64206C65747424
:1007C0006572006572726F723A20006F6B0D0A00DD
:1007D00011241FBECFEFD8E0DEBFCDBF11E0A0E0F7
:1007E000B1E0EEE5F7E702C005900D92A030B10749
:1007F000D9F716E0A0E0B1E001C01D92AE3CB10710
:10080000E1F70E9407040C94AD3B0C9400000E9499
:10081000AF130E9472230E94A5160E94C3348EE17A
:10082000E7E2F5E0DF011D928A95E9F781E0809328
:10083000270578948091BD0684FF03C081E08093F2
:1008400028050E9422140E94E7120E94FB120E94B7
:100850008A130E94A12A0E94822F0E94A5290E9429
:10086000B61D0E9430250E94E012109227051092BA
:100870004505109247051092290510922A050E94FD
:10088000DD15DFCF8091450584FD27C08FB7F89433
:10089000909145059061909345058FBF0E94031389
:1008A0000E948D1390912805892F8C7021F48091DE
:1008B0002905813091F4943031F49FB7F8948091F8
:1008C0004705806205C09FB7F8948091470588600E
:1008D000809347059FBF0E948A1D08950E94BF2AEA
:1008E00084E00E94932B83E00E94932B0E9491143A
:1008F00080912705882321F40E94E0120E94A12AFA
:100900000895EF92FF920F931F93CF93DF937B0194
:100910008C0180912805823009F447C0C801B701D5
:1009200020E030E040EA51E40E94773A0E94163914
:100930000E94AD38EB010E94C615C801B70120E046
:1009400030E04AE754E40E94773A7B018C0182E36D
:1009500090E0C89FB001C99F700DD89F700D112401
:1009600080E090E00E94D9389B01AC01C801B7013A
:100970000E945F370E9416390E94AD38DC01CB011E
:100980000E946E2A00E911E00EC00E94911480912D
:100990002705882351F484EF91E0F8013197F1F7AE
:1009A0000197D9F72197209781F7DF91CF911F9178
:1009B0000F91FF90EF900895DF92EF92FF920F93C7
:1009C0001F93CF93DF93EC017A018B01D22E80919C
:1009D000BD0685FF03C0CE010E94CA2A809128056A
:1009E000823099F00E94911480912705882369F440
:1009F0000E94F323882319F00E948814F3CFCE01BC
:100A0000B801A7012D2D0E948725DF91CF911F915D
:100A10000F91FF90EF90DF900895AF92BF92CF9229
:100A2000DF92EF920F931F93CF93DF93EC015A0164
:100A30006B01122F80912805823009F466C00E9454
:100A4000C61510924305802F0E94852F0E94982F73
:100A5000882351F09FB7F894809147058061809377
:100A600047059FBF0E94911480912705882309F0B4
:100A70004CC0CE01B601A501212F0E94DC0481E00B
:100A8000809346059FB7F8948091450582608093D6
:100A900045059FBF0E949114809127058823A9F5E1
:100AA000809128058823B1F7809146058130A9F40B
:100AB000EE2051F0E7E3F5E0DF011C978CE00D90AC
:100AC00001928150E1F70CC09FB7F89480914705DF
:100AD0008061809347059FBF03C081E080934305F9
:100AE000109246050E94911480912705882369F48D
:100AF0000E94B61D0E94A5290E943025CE016BE2FE
:100B000075E00E9444350E945A32DF91CF911F91C7
:100B10000F91EF90DF90CF90BF90AF9008952F92FC
:100B20003F924F925F926F927F928F929F92AF927D
:100B3000BF92CF92DF92EF92FF920F931F93DF93BA
:100B4000CF93CDB7DEB7EF970FB6F894DEBF0FBEE9
:100B5000CDBF9CAB8BAB7EAB6DAB3A010FAB18AF8F
:100B600029AF3AAFCBAEDCAEEDAEFEAEAFAE992460
:100B7000880C991C880C991C880D991D9AAB89AB1F
:100B80009A01280D391D38AB2FA7D901AD90BD9022
:100B9000CD90DC90C601B501E9A9FAA92081318187
:100BA000428153810E9460376DA37EA38FA398A7D3
:100BB00065966FAD6597462E5524440C551C440C24
:100BC000551C2BA93CA9240D351D3EA72DA7C301FB
:100BD000840D951D9CA78BA7DC01ED90FD900D91D8
:100BE0001C91C801B701F9012081318142815381F3
:100BF0000E94603769A37AA38BA39CA3D601C50189
:100C0000B0588D8F9E8FAF8FB8A3D801C701B05851
:100C1000898F9A8FAB8FBC8FADA9BEA98A0E9B1E00
:100C2000F40160817181828193812DA13EA14FA148
:100C300058A50E945F373B014C012DA93EA9420EE9
:100C4000531ED2016D917D918D919C9129A13AA164
:100C50004BA15CA10E945F375B016C016D8D7E8DA5
:100C60008F8D98A1A60195010E94773A7B018C0196
:100C7000698D7A8D8B8D9C8DA40193010E94773AAA
:100C80009B01AC01C801B7010E945F371B012C0119
:100C90006D8D7E8D8F8D98A1A40193010E94773A6E
:100CA0007B018C01698D7A8D8B8D9C8DA6019501C0
:100CB0000E94773A9B01AC01C801B7010E946037DE
:100CC0009B01AC01C201B1010E94D3375B016C01F1
:100CD00067968FAD6797882399F0C601B5012DEB14
:100CE00037E346E055EB0E943C3A8823ECF0C6011E
:100CF000B5012BED3FE049EC50E40E945F3712C094
:100D0000C601B5012DEB37E346E055E30E943938C3
:100D1000181654F0C601B5012BED3FE049EC50E444
:100D20000E9460375B016C01E090B906F090BA0652
:100D30000091BB061091BC066FA978AD89AD9AAD44
:100D40009B01AC010E946037A80197010E945F37A8
:100D50009B01AC01C801B7010E94773A0E94043B95
:100D60007B018C01C601B50120E030E040E05FE38B
:100D70000E94773A2FA938AD49AD5AAD0E94773A13
:100D80009F77A80197010E9440380E9416390E945F
:100D9000AD38788F6F8B6115710509F487C1BFADD0
:100DA000BB2381F080E090E00E94D9389B01AC0128
:100DB0006BAD7CAD8DAD9EAD0E94773A6BAF7CAFD5
:100DC0008DAF9EAF2F89388DB90180E090E00E94F1
:100DD000D9387B018C01C601B501A80197010E9499
:100DE00040386B8B7C8B8D8B9E8B6696EFAD6697B8
:100DF000F0E0EE0FFF1FEE0FFF1F8BA99CA98E0FD7
:100E00009F1F9AA789A7ADA9BEA9EA0FFB1F608102
:100E1000718182819381E9A5FAA520813181428186
:100E200053810E945F37A80197010E9440386F8765
:100E3000788B898B9A8B6B897C898D899E899B01A4
:100E4000AC010E94773A9B01AC0160E070E080E069
:100E500090E40E945F375B016C016B897C898D890E
:100E60009E892BEA3AEA4AE25EE30E94773A7B01E6
:100E70008C01C601B50120E030E040E850E40E945A
:100E800060379B01AC01C801B7010E94773A6B87BC
:100E90007C878D879E87C601B50120E030E040E069
:100EA0005FE30E94773A69837A838B839C8321E096
:100EB00030E03E832D839924F1C03BE0391508F4DE
:100EC00046C06D8D7E8D8F8D98A12B853C854D857F
:100ED0005E850E94773A7B018C01698D7A8D8B8DBE
:100EE0009C8D29813A814B815C810E94773A9B01DC
:100EF000AC01C801B7010E9460377B018C016D8D88
:100F00007E8D8F8D98A129813A814B815C810E94D1
:100F1000773A5B016C01698D7A8D8B8D9C8D2B8569
:100F20003C854D855E850E94773A9B01AC01C601E8
:100F3000B5010E945F376D8F7E8F8F8F98A393943A
:100F4000C701D801898F9A8FAB8FBC8F61C0AD81EB
:100F5000BE81BD0180E090E00E94D9382B893C8998
:100F60004D895E890E94773A7B018C01C8010E94FD
:100F70003D386F83788789879A87B701C8010E94B7
:100F8000FA3A3B014C01EFA5F8A9E080F18002811B
:100F9000138117FB109517F91095ABA5BCA52D90E3
:100FA0003D904D905C90C801B7012F8138854985EF
:100FB0005A850E94773A5B016C01C201B101A4011C
:100FC00093010E94773A9B01AC01C601B5010E94D2
:100FD00060376D8F7E8F8F8F98A3C801B701A401F2
:100FE00093010E94773A7B018C01C201B1012F81EC
:100FF000388549855A850E94773A9B01AC01C80122
:10100000B7010E945F37698F7A8F8B8F9C8F9924ED
:101010006DA17EA18FA198A52D8D3E8D4F8D58A1DC
:101020000E946037E9A9FAA9608371838283938360
:1010300069A17AA18BA19CA1298D3A8D4B8D5C8DE4
:101040000E946037ADA5BEA56D937D938D939C9353
:101050001397E9A5FAA560817181828193812F851B
:10106000388949895A890E946037A9A5BAA56D9324
:101070007D938D939C9313978BA99CA94BAD5CADED
:101080006DAD7EAD2FAD0E94DC04809127058823D5
:10109000B1F4ED81FE813196FE83ED832D813E8199
:1010A0008F89988D2817390708F407CF8DA99EA935
:1010B0004BAD5CAD6DAD7EAD2FAD0E94DC04EF9607
:1010C0000FB6F894DEBF0FBECDBFCF91DF911F9159
:1010D0000F91FF90EF90DF90CF90BF90AF909F90D7
:1010E0008F907F906F905F904F903F902F900895DA
:1010F0002F923F924F925F926F927F928F929F9228
:10110000AF92BF92CF92DF92EF92FF920F931F9315
:10111000DF93CF93CDB7DEB7A8970FB6F894DEBFB5
:101120000FBECDBF1C01E7E8F5E089E3DF011D92AA
:101130008A95E9F73196A8E4B5E08AE00D9001922E
:101140008150E1F7198266241F8E1E8E1CA277241F
:10115000AA24BB2461E0462E512C9924939452E09A
:10116000852EBAC2802F81548A3118F081E00C9408
:10117000C1129F5F9983C101BE016F5F7F4FAE01B6
:101180004E5F5F4F0E94B629882319F482E00C94C9
:10119000C112CA80DB80EC80FD80C701B6010E94CD
:1011A000453B0E94AD38162F70E0882777FD80956B
:1011B000982F0E94DB389B01AC01C701B6010E9449
:1011C0005F3720E030E048EC52E40E94773A0E941A
:1011D000DA3A0E94AD389B01073421F00D3409F052
:1011E00099C14DC1183209F445C1193200F51431C5
:1011F00070F4113108F0E3C0143009F449C0143020
:1012000008F495C01A3011F00C94B01237C01C319C
:10121000A9F11D3128F4163110F00C94B012FFC062
:101220001E3161F1163211F00C94B01280C01D33E2
:1012300009F41AC11E3388F4153351F1163340F402
:101240001B3209F4F5C0113311F00C94B012F0C048
:101250001C3310F00C94B01202C11C3540F41A3546
:1012600008F0BDC0103511F00C94B01267C01C35E9
:1012700029F01F3510F00C94B012C8C021153105AB
:1012800039F4BCA1BB2311F00C94AE12E1E0ECA345
:101290001C31A9F01D3128F4143051F01A3069F4D2
:1012A0000AC0153371F11C3581F11E3131F418C0BB
:1012B0009092870502C08092870580E0DCC02115EE
:1012C000310531F02A30310511F00C94B01204C010
:1012D000F3E0F093870529C024E02093870525C01B
:1012E0002115310531F02A30310511F00C94B0127E
:1012F00004C085E08093870518C096E09093870529
:1013000014C0A7E0A0938705D8CF2115310531F08F
:101310002A30310511F00C94B01204C0B8E0B0933B
:10132000870503C0E9E0E093870580E0E3C0FCA106
:10133000FF2311F00C94AE1282E08CA3123089F0DE
:10134000133028F4112351F0113069F40AC0163219
:1013500061F0103581F1133031F403C0109288052B
:1013600002C01093880581E086C02E313105B1F0AE
:101370002F31310530F42431310511F00C94B012C5
:1013800009C02832310571F02233310511F00C9477
:10139000B0120DC094E09093880507C0A5E0A0931B
:1013A000880503C0B6E0B093880581E0A3C0E7E0FC
:1013B000E0938805FACFF8E0F0938805D4CF123196
:1013C00039F0133149F0113129F410928C0502C023
:1013D00090928C0582E04FC080928C05FBCF611506
:1013E000710549F41A3519F410928B0502C09092D8
:1013F0008B0583E07FC06A30710511F00C94B01248
:101400001A3511F00C94DA120C94B0121D3519F43F
:101410009092890502C01092890585E02CC0143194
:1014200019F490928A0502C010928A0586E023C0C2
:101430008CA1882311F00C94AE12113329F4109270
:101440008D0593E09CA309C02A30310511F00C945E
:10145000B01290928D05A3E0ACA388E04BC0165368
:1014600010938E0589E007C0672B11F40C94DD12F0
:101470000C94B01287E0232BE9F10C94B212672B85
:1014800011F00C94B212163018F41330C0F40AC0E4
:10149000183010F40C94B0121A3008F11E3111F00B
:1014A0000C94B012123041F01E3131F0112311F4BE
:1014B00090928F058BE01EC080928F05FBCF143079
:1014C00039F0153041F0133041F49092910505C088
:1014D0008092910502C0109291058CE00BC01830EB
:1014E00019F0193031F403C08092900502C01092B7
:1014F00090058DE0920102C0220F331F8A95E2F71A
:10150000C9018A219B21892B11F00C94B412A22AC3
:10151000B32AE2C0003509F472C00135BCF40A34C4
:1015200009F443C00B343CF4063449F1093411F09A
:101530000C94B0122EC00C3409F44FC00C340CF4CF
:1015400040C00E3411F00C94B0124BC00435A9F019
:10155000053544F4023509F45CC0033511F00C94F0
:10156000B01261C0093509F474C00A3509F47DC0B0
:10157000083511F00C94B01260C029E081C0C0920F
:101580009205D0929305E0929405F092950520E0A3
:1015900077C0C0929605D0929705E0929805F09298
:1015A0009905B1E06B2A21E06BC0C0929A05D092F8
:1015B0009B05E0929C05F0929D05E2E06E2A22E0F8
:1015C0005FC0C0929E05D0929F05E092A005F09268
:1015D000A105F4E06F2A23E053C01093A20524E094
:1015E0004FC0C701B6010E94A8386093A30570934D
:1015F000A4058093A5059093A60525E041C0C0925F
:10160000A705D092A805E092A905F092AA0526E0C8
:1016100037C0C092AB05D092AC05E092AD05F09218
:10162000AE0527E02DC0C092AF05D092B005E09284
:10163000B105F092B20528E023C0C092B405D09263
:10164000B505E092B605F092B70521E0722A2AE0CE
:1016500017C0C092B805D092B905E092BA05F092D1
:10166000BB0582E0782A2BE00BC0C092BC05D0926B
:10167000BD05E092BE05F092BF0594E0792A2CE00A
:101680008201022E02C0000F111F0A94E2F78E8D14
:101690009F8D80239123892B11F089E172C781E608
:1016A00093E002C0959587952A95E2F780FF0EC0DA
:1016B0006A817B818C819D8120E030E040E050E0B8
:1016C0000E943938882314F484E05BC7AE8DBF8D47
:1016D000A02BB12BBF8FAE8F9981F101E90FF11DC6
:1016E0000081002309F03ECD772029F0BCA1BB2367
:1016F00011F4E2E0ECA3FE8DF5FF0FC08091A3058D
:101700009091A405A091A505B091A6058058964991
:10171000A849B04014F08BE134C78091890581302D
:1017200039F48CA18230B1F59E8D90FD33C01EC777
:1017300080914905882371F5AE8DA0FF1BC0809173
:101740008A05813039F560919205709193058091F9
:1017500094059091950523E333E34BEC51E40E940B
:10176000773A6093920570939305809394059093D4
:10177000950510C08091560590915705A091580588
:10178000B09159058093920590939305A093940589
:10179000B0939505EE8DFF8DF0FD10C08091520540
:1017A00090915305A0915405B09155058093AF05D4
:1017B0009093B005A093B105B093B20580918705D1
:1017C000813041F4FE8DF6FFD3C68E8D9F8D8F7BC9
:1017D0009F8F8E8F80918C05882341F0813061F43A
:1017E0001AA292E09BA3A1E0A9A30BC0B1E0BAA307
:1017F0001BA2E2E0E9A305C0F2E0FAA321E02BA3DB
:1018000019A280918A05813051F544EBE42E45E020
:10181000F42E00E010E0C72CDD24C601002E02C02B
:10182000959587950A94E2F780FF10C0D7016D91D6
:101830007D918D919C9123E333E34BEC51E40E9425
:10184000773AF70160837183828393830F5F1F4F21
:1018500084E090E0E80EF91E03301105F1F69CA13A
:10186000933049F480918D05813029F4A4E07A16F3
:1018700011F085E286C6DE011696EBE6F5E08CE017
:1018800001900D928150E1F7B1FE12C090918E054A
:10189000973008F06FC680914E05891749F0892F5F
:1018A000BE016A5F7F4F0E943922882309F464C613
:1018B00080918705823021F0883009F0FDC09AC000
:1018C000772009F45BC68E8D9F8D80759070892B73
:1018D00009F44EC66091A7057091A8058091A905ED
:1018E0009091AA050E94453B0E94AD38673008F0F0
:1018F00041C62091A205243131F0223009F030C6D2
:10190000BE8DB7FD2DC6662319F0615068A303C0D4
:10191000E0918E05E8A38E010E5E1F4F88A1B801ED
:101920000E943922882309F427C6780134EB832EDC
:1019300035E0932E2FE5C22E25E0D22E00E010E0F8
:10194000A72CBB24C501002E02C0959587950A944B
:10195000E2F780FF3BC08091A205843169F5D60192
:101960006D917D918D919C91139758962D913D91FC
:101970004D915C915B970E945F37F401208131812A
:10198000428153810E945F37D7016D937D938D9380
:101990009C9313970230D1F42091830530918405F4
:1019A00040918505509186050E945F37F70160835D
:1019B0007183828393830AC0F40180819181A28123
:1019C000B381F70180839183A283B3830F5F1F4F9D
:1019D00084E090E0E80EF91E880E991EC80ED91E0C
:1019E0000330110509F0AECFAE8DBF8DAF7ABF8F3A
:1019F000AE8F02C1772009F4C1C504EB15E09FE565
:101A0000C92E95E0D92E86E0882E912C8C0E9D1E35
:101A1000EE24FF24A72CBB24C5010E2C02C09595F3
:101A200087950A94E2F780FF2CC0F60160817181EE
:101A300082819381D4012D913D914D915C910E94C1
:101A40005F37F80120813181428153810E945F37E5
:101A5000D8016D937D938D939C931397B2E0EB1611
:101A6000D1F42091830530918405409185055091F2
:101A700086050E945F37F8016083718382839383B8
:101A80000AC0F601808D918DA28DB38DF8018083FF
:101A90009183A283B3830894E11CF11C0C5F1F4F58
:101AA00084E090E0C80ED91E880E991E93E0E916D6
:101AB000F10409F0B1CF9FC0ACA1A33009F47CC000
:101AC000772009F479C01FE5C12E15E0D12E04EB73
:101AD00015E0B6E0AB2EB12CAC0EBD1EEE24FF24FB
:101AE000872C9924C4010E2C02C0959587950A94E1
:101AF000E2F780FD0BC0F60180819181A281B38164
:101B0000F80180839183A283B38346C080918705C7
:101B1000873009F441C080918B05882361F5D50198
:101B20006D917D918D919C91F601208D318D428D2D
:101B3000538D0E946037D8012D913D914D915C915C
:101B40000E946037F8016083718382839383F2E09F
:101B5000EF1611F52091830530918405409185059C
:101B6000509186050E946037D8016D937D938D93C7
:101B70009C93139711C0F8016081718182819381D8
:101B8000D6012D913D914D915C910E946037F801F5
:101B900060837183828393830894E11CF11C84E049
:101BA00090E0C80ED91E0C5F1F4FA80EB91E93E01F
:101BB000E916F10409F096CF80918705853049F048
:101BC000873099F08330B9F4772009F41CA286E0BD
:101BD00004C0772009F41CA287E0BE016E5E7F4F2F
:101BE0000E943922882339F4C7C480918805823045
:101BF00010F08EE1C6C418A210918805183049F47F
:101C0000772009F45FC2ACA1A13009F45BC28FE177
:101C1000B8C4BCA1B23009F055C21123E9F06091FB
:101C2000920570919305809194059091950520E01F
:101C300030E040E050E00E943938882309F496C42F
:101C4000143030F4123060F4113009F03BC204C09B
:101C5000183008F037C213C2772009F432C232C2FA
:101C6000772009F48BC4FBA1EF2FF0E0F8A7EFA3D6
:101C70009AA1892F90E09EA38DA381E090E08C0132
:101C80000DA002C0000F111F0A94E2F70FA002C0BE
:101C9000880F991F0A94E2F7082B192B872D90E0E3
:101CA00080239123892B11F480E26BC4EFA1F8A566
:101CB000EE0FFF1FEE0FFF1FDF01A85BBA4FE957C2
:101CC000FA4F65A576A587A590A957962D913D91C8
:101CD0004D915C915A970E945F375B016C01EDA1B9
:101CE000FEA1EE0FFF1FEE0FFF1FDF01A85BBA4F33
:101CF000E957FA4F65A576A587A590A957962D9126
:101D00003D914D915C915A970E945F371B012C01C8
:101D1000AE8DA7FF02C10FE515E064EBE62E65E08E
:101D2000F62EF8016081718182819381D7012D9116
:101D30003D914D915C910E943938882359F40C5F94
:101D40001F4FE4E0F0E0EE0EFF1EF5E00B361F073C
:101D500041F716C480918A058130B1F46091AB05DA
:101D60007091AC058091AD059091AE0523E333E30E
:101D70004BEC51E40E94773A6093AB057093AC054D
:101D80008093AD059093AE05E090AB05F090AC0567
:101D90000091AD051091AE05C801B70120E030E01B
:101DA00040E850E40E94773AA80197010E94773AF0
:101DB0007B018C01C601B501A60195010E94773A0D
:101DC0009B01AC01C801B7010E945F377B018C0108
:101DD000C201B101A20191010E94773A9B01AC01BD
:101DE000C801B7010E945F377B018C0120E030E021
:101DF00040E050E00E943938882314F482E2C1C3E5
:101E0000C801B7010E94043B7B018C01C601B501EA
:101E1000A20191010E94782A9B01AC0117FB109549
:101E200017F91095C801B7010E9440387B018C0159
:101E300080918805833021F417FB109517F91095D0
:101E40006090AB057090AC058090AD059090AE05AC
:101E5000C401B30120E030E040E050E00E94393896
:101E600088237CF417FB109517F91095D401C30152
:101E7000B0588093AB059093AC05A093AD05B0939B
:101E8000AE058E8D9F8D8F779F8F8E8FAFA1B8A55A
:101E9000AA0FBB1FAA0FBB1FA557BA4FB8A7AFA366
:101EA000C201B101A80197010E94773A9B01AC01E0
:101EB000C601B5010E945F3720E030E040E05FE3FB
:101EC0000E94773AEFA1F8A5638774878587968784
:101ED0008DA19EA1880F991F880F991F85579A4F32
:101EE0009EA38DA3C601B501A80197010E94773A70
:101EF0009B01AC01C201B1010E94603720E030E0DB
:101F000040E05FE30E94773AADA1BEA11B966D93BE
:101F10007D938D939C931E97D5C0862C9924082180
:101F20001921012B11F483E22CC3EE8DFF8DE17F8B
:101F3000FF8FEE8F80918A05813041F536E9E32EDF
:101F400035E0F32E00E010E0C401002E02C09595AC
:101F500087950A94E2F780FF10C0D7016D917D91BB
:101F60008D919C9123E333E34BEC51E40E94773A4B
:101F7000F70160837183828393830F5F1F4F84E037
:101F800090E0E80EF91E03301105F1F6EFA0F8A479
:101F9000EE0CFF1CEE0CFF1CABE8B5E0EA0EFB1EDE
:101FA000C601B501F70123853485458556850E9414
:101FB0005F375B016C010DA11EA1000F111F000F07
:101FC000111F05571A4FC201B101D8011B962D915F
:101FD0003D914D915C911E970E945F379B01AC0132
:101FE000C601B5010E94782A5B016C01F701638587
:101FF000748585859685D8011B962D913D914D91CF
:102000005C911E970E94782A3B014C016093AB05BE
:102010007093AC058093AD059093AE05C601B501F4
:10202000A40193010E945F377B018C01E89417F9AA
:10203000C801B7012AE037ED43EA5BE30E943C3A6E
:1020400018160CF03FC0C801B70120E030E040E0B6
:102050005FE30E943C3A18160CF492C2C401B3012B
:102060002FE632E143E85AE30E94773A9B01AC0144
:10207000C801B7010E943C3A181624F581C27720A6
:1020800009F47CC20FE515E084EBE82E85E0F82E1C
:10209000F8016081718182819381D7012D913D91F9
:1020A0004D915C910E943938882361F40C5F1F4F79
:1020B000E4E0F0E0EE0EFF1EF5E00B361F0741F7FF
:1020C0005FC21CA28E8D9F8D8E7D9C7F2CA12223B2
:1020D00021F08E8D9F8D8E7D907E892B11F084E274
:1020E00050C28091A3059091A405A091A505B0913F
:1020F000A60580935B0590935C05A0935D05B09366
:102100005E058091890580934905809192059091A3
:102110009305A0919405B0919505809356059093F1
:102120005705A0935805B0935905E090AF05F0907E
:10213000B0050091B1051091B20560915205709102
:1021400053058091540590915505A80197010E946F
:1021500039388823C1F080915105882321F0B801D6
:10216000A7010E9471138091AF059091B005A091D5
:10217000B105B091B2058093520590935305A09399
:102180005405B09355058091B30580935A059091FD
:10219000910580915105891779F040915205509130
:1021A00053056091540570915505892F0E94711354
:1021B00080919105809351059091900580915005F3
:1021C000891739F0892F0E9495138091900580938B
:1021D000500580918705813051F46091A705709179
:1021E000A8058091A9059091AA050E94810480917B
:1021F0008C0580934C0580918A0580934A058CA1BB
:102200008330D9F480918D0580934D05813049F458
:102210008091BC059091BD05A091BE05B091BF0510
:1022200004C080E090E0A0E0B0E08093830590934C
:102230008405A0938505B093860590918E058091C5
:102240004E05891759F090934E05ABE6B5E0FE01B7
:1022500036968CE001900D928150E1F780918B05CC
:1022600080934B0580918705853059F1863048F47D
:10227000833039F1843008F044C0823009F05AC00C
:102280000AC0883009F445C0893009F44CC0863052
:1022900009F050C038C08E010E5E1F4F88A1B801F2
:1022A0000E942E2280914E0598A1891709F042C004
:1022B000ABE6B5E0F8018CE001900D928150E1F7BA
:1022C00039C0ACA1AA2349F084EB95E040E050E08E
:1022D00060E87FEB20E00E94DC048E010E5E1F4F61
:1022E000C80140E050E060E87FEB20E00E94DC04A1
:1022F000AFE5B5E0F8018CE001900D928150E1F777
:1023000019C086E001C087E06FE575E00E942E22CB
:1023100011C0A7E7B5E0E4EBF5E08CE001900D9289
:102320008150E1F707C08CE0E7E7F5E0DF011D929F
:102330008A95E9F78091880580934805883009F4EB
:10234000C2C0BCA1B23009F0BEC0833009F44AC09B
:10235000843028F48130C1F0823028F50DC08530FA
:1023600009F47AC0853008F469C0863009F482C067
:10237000873009F09FC08DC084EB95E040E050E0CD
:1023800060E87FEB20E00CC0409156055091570566
:10239000609158057091590584EB95E020914905AD
:1023A0000E94DC0487C000D00F92EDB7FEB73196D3
:1023B0000091AB051091AC052091AD053091AE05B3
:1023C000C0905605D0905705E0905805F0905905FB
:1023D0008AA1ADB7BEB711968C9399A1918381E084
:1023E00082831DC000D00F92EDB7FEB731960091E9
:1023F000AB051091AC052091AD053091AE05C090B4
:102400005605D0905705E0905805F09059058AA1DF
:10241000ADB7BEB711968C9399A1918312828FE5C7
:1024200095E064EB75E046E955E0A09049058BA086
:102430000E948F050F900F900F903CC04091560561
:1024400050915705609158057091590584EB95E0BE
:102450002091490500E01BC0409156055091570559
:10246000609158057091590584EB95E020914905DC
:1024700000E01CC0409156055091570560915805E9
:102480007091590584EB95E02091490501E0EE2417
:102490000FC04091560550915705609158057091B5
:1024A000590584EB95E02091490501E0EE24E39481
:1024B0000E940D05AFE5B5E0E4EBF5E08CE001909E
:1024C0000D928150E1F780918F0580934F0588230D
:1024D00009F457C00E94C61580914F05813079F4E8
:1024E000809128058230B1F19FB7F894809145051D
:1024F0008860809345059FBF0E9491142BC081E0A6
:102500008093480510924C0510924B051092490596
:1025100010924E0510925105109250058091280599
:102520008230A9F08E010A5F1F4F80E0B8010E943F
:102530003922882309F1ABE6B5E0F8018CE001907F
:102540000D928150E1F70E9403130E948D1387E0E2
:102550000E94C32F10924F0580E013C088E111C084
:1025600084E10FC087E10DC085E10BC086E109C0A1
:102570008CE107C08DE105C087E003C08AE101C09E
:1025800081E2A8960FB6F894DEBF0FBECDBFCF9103
:10259000DF911F910F91FF90EF90DF90CF90BF9050
:1025A000AF909F908F907F906F905F904F903F90F3
:1025B0002F90089584E00C947A0A8AE00C947A0AA9
:1025C0008FE595E06BE275E00E9444350895E8E4FC
:1025D000F5E08FE3DF011D928A95E9F780914E05C2
:1025E000BF016D5D7F4F0E943922882319F487E077
:1025F0000E94FC2F0895239A259AE0EBF0E0808159
:102600008F7780830895E0EBF0E080818F7780837F
:102610000895EF92FF920F931F937A018B01882305
:10262000C1F0813011F42D9801C02D9A83E8809378
:10263000B0008091B100887F82608093B100C801B2
:10264000B70120E030E040E050E00E943938181631
:1026500034F08091B0008F778093B0003DC0C80106
:10266000B70120E030E040E050E00E943938882394
:102670005CF40F2EF0E0EF2EF0E0FF2EF0E00F2FD5
:10268000F0E01F2FF02D14C0C801B70120E030E0AA
:102690004AE754E40E943C3A181654F40F2EF0E036
:1026A000EF2EF0E0FF2EFAE70F2FF4E41F2FF02DAE
:1026B000C801B7012CE53FE842E85EE30E94773AA3
:1026C00020E030E040E05FE30E9460370E9416396E
:1026D0000E94AD386093B3001F910F91FF90EF906F
:1026E0000895DF92EF92FF920F931F93D82E7A01F5
:1026F0008B0180912805823039F00E94C6158D2DFE
:10270000B801A7010E9409131F910F91FF90EF904C
:10271000DF9008953B9A4398089543980895823036
:1027200011F4439A0895439808951F93182F8091A8
:102730002805823039F00E94C615123011F4439AF0
:1027400001C043981F91089590910101809100016B
:10275000891710F0891B08958058891B0895E0ECB3
:10276000F0E08081826080831092C50080E18093D8
:10277000C400E1ECF0E0808180618083808188602A
:1027800080838081806880830895282FE0910201F2
:102790009E2F9F5F903431F490E004C080914505F6
:1027A00084FD0FC0809103019817C1F3F0E0E0545D
:1027B000FA4F2083909302018091C1008062809340
:1027C000C10008951F920F920FB60F9211248F939C
:1027D0009F93EF93FF9380910301E82FF0E0E05483
:1027E000FA4F90819093C600982F9F5F903409F420
:1027F00090E09093030180910201981729F4809151
:10280000C1008F7D8093C100FF91EF919F918F91C7
:102810000F900FBE0F901F9018959091010180911D
:102820000001891711F48FEF0895E92FF0E0E050CF
:10283000FA4F8081E92FEF5FE03809F4E0E0E093A0
:1028400001010895809100018093010108951F9274
:102850000F920FB60F9211242F933F934F935F93D4
:102860006F937F938F939F93AF93BF93EF93FF9358
:102870009091C6009F3361F0903428F4983119F19B
:10288000913221F514C09034C1F09E37F9F406C09E
:102890009FB7F89480914505816005C09FB7F89473
:1028A000809145058260809345059FBF20C09FB7FA
:1028B000F894809145058860F6CF9FB7F894809191
:1028C00045058062F0CF0E94420411C0E0910001F2
:1028D0002E2F2F5F203809F420E080910101281766
:1028E00031F0F0E0E050FA4F908320930001FF9127
:1028F000EF91BF91AF919F918F917F916F915F9178
:102900004F913F912F910F900FBE0F901F901895F0
:102910009FB7F894809145058260809345059FBFDD
:102920000895CF92DF92EF92FF920F931F93CF9370
:10293000DF93FF24F39428E0D22E90E2C92E00E129
:1029400080E4E82E80914705882381F1F0922805E4
:10295000182F81FF02C081E00FC082FF02C082E019
:102960000BC083FF02C083E007C084FF02C084E085
:1029700003C085FF03C085E00E94953410FF0FC09F
:1029800081E00E94C32F9FB7F894809145058F7E08
:10299000809345059FBF8091450584FFFCCF8FB78D
:1029A000F89490914705109247058FBF1091450507
:1029B000112309F4C9C0C12FD0E014FF04C081E085
:1029C00080932705DAC010FF0AC00E9463309FB7CA
:1029D000F894809145058E7F809345059FBFCE0179
:1029E00088769070892B09F43DC090912805992331
:1029F00049F0892F8C7771F1983021F40E94C71625
:102A0000F092290590912805992319F482E080938A
:102A10002905C6FF09C0983011F4E092280580917D
:102A20002905886080932905C3FF06C08091280589
:102A300085FD02C000932805C5FF0CC086E00E94FA
:102A4000C32F8091290581FD14608460809329053E
:102A5000C09228059FB7F8948091450587798093A7
:102A600045059FBFC12FD0E011FF4AC0CE01887637
:102A70009070892BE9F580912805882331F08075C5
:102A8000B9F18091290581FF33C08091290582FF2A
:102A90001CC080915105882371F0409152055091DE
:102AA000530560915405709155050E94091380EA01
:102AB0009FE00E946E2A80915005882331F00E9489
:102AC0008F1388EE93E00E946E2A0E94E223892BE6
:102AD00059F08091290583FD07C0D09228050E94F6
:102AE000E9160E94671602C0109228051092290567
:102AF0009FB7F894809145058D7F809345059FBFD2
:102B0000C2FF22C080912805807391F080912A0530
:102B1000882371F48091290582FF04C00E94031369
:102B20000E948D138091290582608093290504C03D
:102B300010922905109228059FB7F89480914505B9
:102B40008B7F809345059FBF809128058C7711F07E
:102B50000E94E91680912805803251F48091290560
:102B600081FF06C00E94D434882311F40093280505
:102B700080912905882309F0E5CEDF91CF911F913F
:102B80000F91FF90EF90DF90CF9008959FB7F8944A
:102B9000809145058260809345059FBF0E949114F6
:102BA00080912705882341F40E94E223892BB1F705
:102BB00080912805883091F308950F931F930E9408
:102BC000BE2F80912805813021F482E00E94C32F1E
:102BD00028C00E94D434882341F08091450580624A
:102BE000809345050E94911402C01092280584E04C
:102BF00091E00E94953515C09A3011F09D3029F56D
:102C0000E12FF0E0EC5FFE4F10820E949114809162
:102C10002705882331F480910401882321F40E9440
:102C2000FC2F00E02BC0843229F484E091E00E9464
:102C3000C135F5CF80912805813011F489E0EFCFBF
:102C400084E091E00E947808EACF002331F09932C5
:102C500039F5013029F500E023C0913208F19F32A7
:102C6000F9F0983211F401E01BC09B3311F402E03B
:102C700017C01F3428F08BE00E94FC2F10E010C01A
:102C8000892F8156A12FB0E0E12FEF5F8A3120F428
:102C9000AC5FBE4F905202C0AC5FBE4F9C931E2FE4
:102CA0000E940D14982F8F3F09F0A6CF8FB7F8948C
:102CB000909145059260909345058FBF0E949114B5
:102CC00080912705882361F31F910F9108958091CA
:102CD000BD0682FF02C0289A01C02898809128056D
:102CE0008C70E1F08091F4018093DC018091F3011C
:102CF0008093DB018091B00690E0A0E0B0E0029705
:102D0000A109B109880F991FAA1FBB1F8195809344
:102D1000DA0180916F00826080936F0008951F92A6
:102D20000F920FB60F9211248F939F939BB18091B6
:102D3000F3018C71937E892B8BB915BC9F918F9178
:102D40000F900FBE0F901F9018958AB18C618AB9B1
:102D5000209A8AB1806E8AB9E1E8F0E080818F7EA6
:102D60008083808188608083E0E8F0E080818C7FD0
:102D7000808380818F708083EEE6F0E08081887FA1
:102D8000808314BC15BC8081816080830895CF93BB
:102D9000DF93C091F601D091F7012097B9F081E05F
:102DA0008093FB0120911102309112024091130295
:102DB00050911402CA01B9010E94773A698B7A8B4B
:102DC0008B8B9C8B1092F7011092F601DF91CF91C3
:102DD00008952F923F924F925F926F927F928F92BF
:102DE0009F92AF92BF92CF92DF92EF92FF920F939A
:102DF0001F93DF93CF93CDB7DEB7E9970FB6F89463
:102E0000DEBF0FBECDBF80912805807709F426C6AE
:102E1000609111027091120280911302909114023C
:102E200020E030E040E050E00E943938882309F08B
:102E300015C61BC68091F6019091F701892B09F008
:102E40007EC20E94E2239093F7018093F601892BC2
:102E500009F40BC68091FB01882319F01092FB0145
:102E6000CAC08091FA018F5F8093FA01853011F416
:102E70001092FA01E091FA0121E1E29FF0011124A0
:102E8000EC5AFE4FF093F901E093F8010091F6013E
:102E90001091F701D8018C91808311962D913D916D
:102EA0004D915C91149793E0220F331F441F551FDF
:102EB0009A95D1F7218332834383548315962D91BC
:102EC0003D914D915C91189783E0220F331F441F71
:102ED000551F8A95D1F725833683478350871996E6
:102EE0002D913D914D915C911C9773E0220F331F02
:102EF000441F551F7A95D1F721873287438754871E
:102F00001D962D913D914D915C91509763E0220F5C
:102F1000331F441F551F6A95D1F72587368747878A
:102F2000508B1D966D917D918D919C9150970E9433
:102F3000D9386093FC017093FD018093FE0190935A
:102F4000FF01F80125A136A147A150A50E944038F4
:102F50009B01AC0160930002709301028093020216
:102F60009093030260E070E080EA9FE30E944038A3
:102F70006093040270930502809306029093070207
:102F800080E090E0A0E0B0E0809308029093090216
:102F9000A0930A02B0930B02809128058077E1F09C
:102FA0002091190230911A0240911B0250911C028B
:102FB0002093110230931202409313025093140293
:102FC000CA01B9010E94773AD80151966D937D9359
:102FD0008D939C9354970FC0F801618972898389FE
:102FE00094890E94043B60931102709312028093B3
:102FF00013029093140280E090E0A0E0B0E0809390
:103000000D0290930E02A0930F02B0931002009154
:10301000F6011091F701D80191968D919D910D9037
:10302000BC91A02D88AB99ABAAABBBAB60E070E0C4
:1030300080E09FE328A939A94AA95BA90E944038EA
:103040001B012C0180912805807709F456C0B2E05D
:10305000B0930C02F801A5A0B6A0C7A0D0A46188C7
:10306000728883889488C201B101A40193010E94EF
:10307000773A9B01AC01C601B5010E945F377B0125
:103080008C0120E030E040E050E00E943938882395
:10309000FCF468A979A98AA99BA920E030E040E066
:1030A00050EC0E94773AA60195010E94773A9B0165
:1030B000AC01C401B3010E9460370E94043B6093DD
:1030C000190270931A0280931B0290931C0237C15D
:1030D000E0920D02F0920E0200930F021093100284
:1030E00080E090E0A0E0B0E08093190290931A0293
:1030F000A0931B02B0931C0222C110920C02F80193
:1031000085A196A1A7A1B0A580931D0290931E0250
:10311000A0931F02B09320020E9465255B016C0101
:103120006093190270931A0280931B0290931C0201
:10313000A60195010E94773A3B014C012091F601CE
:103140003091F70139AF28AFD90195968D919D91B6
:103150000D90BC91A02D8B8F9C8FAD8FBE8FF901F0
:103160006189728983899489A40193010E945F37E0
:103170009B01AC01C201B1010E94773A9B01AC01F5
:103180006B8D7C8D8D8D9E8D0E94603720E030E0B0
:1031900040E05FE30E94773A7B018C0120E030E061
:1031A00040E050E00E943C3A18160CF0B4C0C80150
:1031B000B7012B8D3C8D4D8D5E8D0E943938882353
:1031C0000CF095C0A8ADB9AD5D966D917D918D91D6
:1031D0009C919097A40193010E945F379B01AC01E1
:1031E000C201B1010E94773A6093210270932202DA
:1031F0008093230290932402A80197010E943938FA
:1032000088230CF047C0E8ADF9ADE58CF68C078D4E
:1032100010A1C801B7010E94043B6093150270938E
:1032200016028093170290931802A8ADB9AD51967B
:10323000AD90BD90CD90DC905497C601B501A8012A
:1032400097010E943938882321F4B1E0B0930C0231
:1032500076C0C801B701A60195010E945F379B01A6
:10326000AC01C201B1010E94773A9B01AC016091AF
:103270001D0270911E0280911F02909120020E94F7
:103280005F3760931D0270931E0280931F0290931C
:10329000200255C0E0921D02F0921E0200931F0210
:1032A00010932002E0922102F09222020093230266
:1032B00010932402E8ADF9AD21A132A143A154A19C
:1032C000CA01B9010E946037A80197010E94773AAC
:1032D000A40193010E9460370E94043B6093150291
:1032E00070931602809317029093180228C0F2E0A0
:1032F000F0930C028091110290911202A09113029E
:10330000B09114028093150290931602A0931702B5
:10331000B093180214C080E090E0A0E0B0E0809389
:103320001D0290931E02A0931F02B0932002A09250
:103330001502B0921602C0921702D0921802809124
:10334000F101B6E08B9FD0011124A755BE4FB9AF54
:10335000A8AF8091FA0112968C93E091F601F0915A
:10336000F701FA8FE98F85A196A1A7A1B0A58D8B52
:103370009E8BAF8BB88FBC01CD01209104023091A0
:10338000050240910602509107020E945F376CA32C
:103390007DA38EA39FA320E030E040E050E00E9498
:1033A0003938882344F480E090E0A0E0B0E08CA3BA
:1033B0009DA3AEA3BFA380911D0290911E02A09178
:1033C0001F02B0912002898B9A8BAB8BBC8B8091B2
:1033D000150290911602A0911702B09118028D87E4
:1033E0009E87AF87B88B8091210290912202A09195
:1033F0002302B091240289879A87AB87BC8780918A
:103400000D0290910E02A0910F02B09110028D83D7
:103410009E83AF83B8878091190290911A02A09180
:103420001B02B0911C0289839A83AB83BC83809179
:10343000110290911202A0911302B091140288A37C
:1034400099A3AAA3BBA390910C029F8FAD88BE88BD
:10345000CF88D88C8EE393ECAEE2B9E38CA79DA71E
:10346000AEA7BFA780E090E0A0E0B0E088A799A752
:10347000AAA7BBA70F2EFEE36F2EF3EC7F2EFEE272
:103480008F2EF9E39F2EF02D9F8D992321F09130FF
:1034900009F0B3C080C0C401B301A98DBA8D919663
:1034A0002D913D914D915C9194970E94773A7B01CB
:1034B0008C0120E030E040E05FE30E94773A9B011E
:1034C000AC0168A179A18AA19BA10E9460379B01F0
:1034D000AC01C401B3010E94773A9B01AC01C60163
:1034E000B5010E945F375B016C0129893A894B89DC
:1034F0005C890E94393888230CF040C069897A8938
:103500008B899C8929853A854B855C850E94393851
:10351000882319F4B2E0BF8F02C0E1E0EF8F6D891C
:103520007E898F89988D29893A894B895C890E9487
:103530005F379B01AC010E9460377B018C0168A161
:1035400079A18AA19BA12D853E854F8558890E942E
:1035500060379B01AC01C801B7010E9440383B01B4
:103560004C01A988BA88CB88DC888D859E85AF857B
:10357000B88988A399A3AAA3BBA3B0C068A179A165
:103580008AA19BA1A80197010E94603768A379A333
:103590008AA39BA3A3C06D857E858F859889A4018E
:1035A00093010E94773A9B01AC01C601B5010E94CC
:1035B0005F377B018C0129853A854B855C850E94AC
:1035C000393887FD03C05701680188C0C601B501BD
:1035D00029853A854B855C850E945F372D853E8520
:1035E0004F8558890E9440383B014C01A984BA8418
:1035F000CB84DC8492E09F8F71C0C401B301A98D9C
:10360000BA8D91962D913D914D915C9194970E9428
:10361000773A7B018C0168A179A18AA19BA1A801BD
:1036200097010E943C3A1816ACF5C801B70120E09A
:1036300030E040E05FEB0E94773A9B01AC0168A16B
:1036400079A18AA19BA10E9460379B01AC01C401B2
:10365000B3010E94773A9B01AC01C601B5010E94FB
:103660005F371B012C012D813E814F8158850E94BF
:103670003C3A18167CF468A179A18AA19BA1A80103
:1036800097010E945F3768A379A38AA39BA3620175
:10369000510124C0C601B5012D813E814F8158855D
:1036A0000E945F379B01AC010E9460377B018C0157
:1036B00068A179A18AA19BA129813A814B815C8172
:1036C0000E9460379B01AC01C801B7010E944038DD
:1036D0003B014C01AD80BE80CF80D88468A579A520
:1036E0008AA59BA5A40193010E94603768A779A7CA
:1036F0008AA79BA72CA53DA54EA55FA50E9439389A
:1037000088232CF46CA57DA58EA59FA518C0C601A5
:10371000B5012CA13DA14EA15FA10E943C3A181613
:103720000CF56CA57DA58EA59FA52EE333EC4EE28E
:1037300059E30E9460376CA77DA78EA79FA728A595
:1037400039A54AA55BA50E945F373B014C01C60124
:10375000B5012D813E814F8158850E943C3A181653
:103760000CF492CE88A199A1AAA1BBA180931102C9
:1037700090931202A0931302B09314029F8D909322
:103780000C02C601B5012091000230910102409166
:103790000202509103020E94773A6CAB7DAB8EAB74
:1037A0009FAB0E9426381B012C016091FC01709197
:1037B000FD018091FE019091FF010E9426383B019E
:1037C0004C01A20191010E945F370E94AD38A8AD63
:1037D000B9AD6D937C93672BB1F580912805807707
:1037E00091F180E090E0A0E0B0E08093110290932E
:1037F0001202A0931302B0931402809308029093D4
:103800000902A0930A02B0930B022092FC013092AD
:10381000FD014092FE015092FF010091F6011091CE
:10382000F701C201B10120910002309101024091E3
:103830000202509103020E944038F80165A376A36A
:1038400087A390A702C168A579A58AA59BA5209109
:1038500008023091090240910A0250910B020E9425
:1038600060377B018C01C401B3012CA93DA94EA98D
:103870005FA90E945F379B01AC01C801B7010E949C
:1038800040387B018C01C201B1012CA93DA94EA990
:103890005FA90E945F37A80197010E94773A609361
:1038A00008027093090280930A0290930B02C801E8
:1038B000B70120EC31EE44E65EE40E94773A0E94C4
:1038C00026380E94AD38AB01BC01403DF7E05F07F0
:1038D000F0E06F07F0E07F0728F4A8ADB9AD1596CA
:1038E0001C9233C0403ABFE05B07B0E06B07B0E02A
:1038F0007B0728F421E0E8ADF9AD25830FC0403403
:103900003FE1530730E0630730E0730710F4E2E073
:1039100001C0E3E0A8ADB9AD1596EC93A8ADB9AD83
:1039200015962C911597022E04C07695679557959C
:1039300047950A94D2F78D919C91119702C0880FF8
:10394000991F2A95E2F78D939C934030B0E05B0776
:10395000B1E06B07B0E07B0728F4E8ADF9AD548324
:10396000438308C0EFEFFFEFA8ADB9AD1496FC9309
:10397000EE9313978091F2018093F1018F5F809312
:10398000F201863011F41092F201C601B5012091C6
:103990000D0230910E0240910F02509110020E94D0
:1039A0003C3A1816ACF4E091F601F091F701A5A2AB
:1039B000B6A2C7A2D0A68CA99DA9AEA9BFA9809383
:1039C000FC019093FD01A093FE01B093FF0146C05E
:1039D000C601B50120E030E040E050E00E943C3AF2
:1039E0001816B4F580E090E0A0E0B0E080931102FA
:1039F00090931202A0931302B093140280930802D2
:103A000090930902A0930A02B0930B022092FC014A
:103A10003092FD014092FE015092FF010091F601AB
:103A20001091F701C201B101209100023091010211
:103A300040910202509103020E944038D8019596AD
:103A40006D937D938D939C9398970E9427250DC02D
:103A50001092F7011092F6010E94CE239091F0018E
:103A60008091F201981709F0E5C9E9960FB6F8942C
:103A7000DEBF0FBECDBFCF91DF911F910F91FF90A1
:103A8000EF90DF90CF90BF90AF909F908F907F90FE
:103A90006F905F904F903F902F900895FF920F93FB
:103AA0001F93CF93DF931092F3011092F401C0E0C3
:103AB000D0E00C2FFC2E8091B10690E00C2E02C0BD
:103AC000959587950A94E2F780FF08C01091F3015D
:103AD0008C2F0E94C220182B1093F3018091B20604
:103AE00090E002C095958795FA94E2F780FF08C0B0
:103AF0001091F401802F0E94CC20182B1093F40118
:103B00002196C330D105A9F6DF91CF911F910F9176
:103B1000FF90089580916F008D7F80936F0080915A
:103B20008100887F8160809381001092F5019091DF
:103B3000B3069F3F21F480914705882351F080917F
:103B40002805843031F0892F90E00E946E2A91E0A0
:103B500001C090E08091BD0682FF02C081E09827FD
:103B6000992311F0289A0895289808950E948A1D93
:103B70008BE2EAEFF1E0DF011D928A95E9F783E23B
:103B8000EDECF1E0DF011D928A95E9F71092EF016B
:103B90001092EE011092F7011092F6011092F001CE
:103BA0001092F10181E08093F2011092F5010E94E0
:103BB0004E1D8BB1837E9091F301892B8BB98BB114
:103BC0008F719091F401892B8BB908951F920F92F8
:103BD0000FB60F9211242F933F934F935F936F93E0
:103BE0007F938F939F93AF93BF93CF93DF93EF9385
:103BF000FF938091F501882309F007C29BB1809162
:103C0000DC01807E9F71892B8BB98BB1837E909173
:103C1000DB01892B8BB98091DA0186BD82E085BDFD
:103C200081E08093F50178948091EE019091EF010D
:103C3000892B09F0A2C09091F0018091F1018917C0
:103C400009F490C09091F00186E0989FE001112462
:103C5000C755DE4FD093EF01C093EE018B819C815D
:103C60009093890080938800888199819093EA01DC
:103C70008093E9019A818091EB01891761F190931A
:103C8000EB01E1E19E9FF0011124EC5AFE4FF0930D
:103C9000ED01E093EC0185859685A785B089B69501
:103CA000A795979587958093D5019093D601A0937A
:103CB000D701B093D8018093D1019093D201A09302
:103CC000D301B093D4018093CD019093CE01A09302
:103CD000CF01B093D001E091EC01F091ED01809122
:103CE000F401908189278093DC012D81818192816B
:103CF000A381B481022E04C0B695A79597958795A8
:103D00000A94D2F78093DD019093DE01A093DF0146
:103D1000B093E00185819681A781B085022E04C011
:103D2000B695A795979587950A94D2F78093E10168
:103D30009093E201A093E301B093E4018185928521
:103D4000A385B48504C0B695A795979587952A95C0
:103D5000D2F78093E5019093E601A093E701B09339
:103D6000E8010BC00E948A1D9FB7F8948091450519
:103D70008460809345059FBF48C10E949E2F10928A
:103D8000DB012091DD013091DE014091DF01509196
:103D9000E0018091CD019091CE01A091CF01B09131
:103DA000D001280F391F4A1F5B1F2093CD0130938C
:103DB000CE014093CF015093D001E091EC01F091FE
:103DC000ED0185859685A785B08982179307A4079D
:103DD000B507A8F584E08093DB0185859685A785E6
:103DE000B089281B390B4A0B5B0B2093CD01309314
:103DF000CE014093CF015093D001808185FF0CC04C
:103E000080912B0590912C05A0912D05B0912E0548
:103E10000197A109B1090BC080912B0590912C0548
:103E2000A0912D05B0912E050196A11DB11D809385
:103E30002B0590932C05A0932D05B0932E05209172
:103E4000E1013091E2014091E3015091E401809160
:103E5000D1019091D201A091D301B091D401280F4A
:103E6000391F4A1F5B1F2093D1013093D201409329
:103E7000D3015093D40185859685A785B089821793
:103E80009307A407B507B8F58091DB01886080939C
:103E9000DB0185859685A785B089281B390B4A0BE0
:103EA0005B0B2093D1013093D2014093D301509307
:103EB000D401808186FF0CC080912F059091300540
:103EC000A0913105B09132050197A109B1090BC04C
:103ED00080912F0590913005A0913105B091320568
:103EE0000196A11DB11D80932F0590933005A093DD
:103EF0003105B09332052091E5013091E601409102
:103F0000E7015091E8018091D5019091D601A091EF
:103F1000D701B091D801280F391F4A1F5B1F20938A
:103F2000D5013093D6014093D7015093D8018585B0
:103F30009685A785B08982179307A407B507B8F5BA
:103F40008091DB0180618093DB0185859685A78563
:103F5000B089281B390B4A0B5B0B2093D50130939A
:103F6000D6014093D7015093D801808187FF0CC0C0
:103F70008091330590913405A0913505B0913605B7
:103F80000197A109B1090BC08091330590913405C7
:103F9000A0913505B09136050196A11DB11D809304
:103FA000330590933405A0933505B0933605809181
:103FB0002805843039F4809144059091DB018923F0
:103FC0008093DB018091E9019091EA010197909340
:103FD000EA018093E901892B79F41092EF011092A4
:103FE000EE018091F0018F5F8093F0018091F001EC
:103FF000863011F41092F0018091F3019091DB0171
:1040000089278093DB011092F501FF91EF91DF91F9
:10401000CF91BF91AF919F918F917F916F915F9160
:104020004F913F912F910F900FBE0F901F901895B9
:10403000F999FECF92BD81BD81E08FBB80B5089517
:10404000F894F999FECF92BD81BD81E08FBB40B558
:104050004627842F992787FD9095262F30E08223CD
:104060009323892B39F06F3F19F060BD84E006C0BF
:1040700084E104C0442321F060BD84E28FBBF99A3F
:10408000789408958F929F92AF92BF92CF92DF92D1
:10409000EF92FF920F93DF93CF9300D0CDB7DEB7AF
:1040A0005C016B017A014A0100E01EC0002319F097
:1040B00021E030E008C0202F332727FD309522274C
:1040C000330F221F3327F60161916F01062F020F74
:1040D0009C012F5F3F4F3A8329830E942020089440
:1040E0008108910889819A8181149104F9F6C701A8
:1040F0008A0D9B1D602F0E9420200F900F90CF9162
:10410000DF910F91FF90EF90DF90CF90BF90AF9035
:104110009F908F900895CF93DF93EC01FB019A015C
:1041200090E0B1E019C0F999FECFF2BDE1BDBFBB8F
:10413000A0B5992319F081E090E008C0892F992754
:1041400087FD90958827990F881F992731969A2F78
:10415000980FA993215030402115310521F7460FC2
:10416000571FF999FECF52BD41BD81E08FBB80B58D
:1041700020E030E0981711F421E030E0C901DF9130
:10418000CF910895882311F484E00895813011F0CF
:1041900080E1089588E00895882311F480E208956D
:1041A000813011F080E8089580E40895882311F4A7
:1041B00082E00895813011F080E1089584E008954F
:1041C00080E090E00E941820893011F020E00CC0BF
:1041D00080E896E061E070E04DE450E00E948B20C2
:1041E00020E0892B09F021E0822F089580E090E003
:1041F00069E00E94202081E090E060E876E04DE4F4
:1042000050E00E9442200895CF92DF92EF92FF92F9
:104210000F931F93082F6A017B01CB01BA0120E0A5
:1042200030E040E050E00E943938882314F484E004
:104230000EC1043608F459C0045690E0033008F06B
:104240004BC0913089F0913030F09230D1F0933002
:1042500009F0F8C031C0E02FF0E0EE0FFF1FEE0FC5
:10426000FF1FE058F94F08C0E02FF0E0EE0FFF1FEE
:10427000EE0FFF1FE457F94FC082D182E282F38232
:10428000E1C010E0000F111F000F111F0856194F59
:10429000C701B60120E030E040E752E40E94773ADF
:1042A00020E030E040E752E40E94773AF801608372
:1042B000718382839383C6C0E02FF0E0EE0FFF1F6F
:1042C000EE0FFF1FEC55F94FD701C601B0588083A0
:1042D0009183A283B383B6C00A3008F4B7C09F5F4E
:1042E000943009F4B3C00A50A9CFC701B6010E94A7
:1042F000453B0E94AD38E02FF0E0EC31F10508F0CD
:10430000A5C0EC5CFF4FEE0FFF1F0590F491E02D70
:104310000994633010F486E09AC06093B00692C0AE
:104320006093B3068FC06093B10602C06093B2067B
:104330000E944E1D87C0662321F08091BD068460D7
:1043400009C08091BD068B7F05C0662331F0809146
:10435000BD0680648093BD0675C08091BD068F7BCD
:10436000F9CF662321F08091BD068068F3CF80915C
:10437000BD068F77EFCF6093B40664C0C092B506D8
:10438000D092B606E092B706F092B8065BC0C09233
:10439000B906D092BA06E092BB06F092BC0652C0B3
:1043A000662321F08091BD068160D4CF8091BD0647
:1043B0008E7FD0CF662341F08091BD0684FD02C080
:1043C0008AE045C08062C6CF8091BD068F7DC2CF96
:1043D000662321F08091BD06886003C08091BD06F0
:1043E000877F8093BD060E94A12A2CC0662321F0FE
:1043F0008091BD068061AECF8091BD068F7CAACF33
:104400006093BE061FC0C092BF06D092C006E09265
:10441000C106F092C20616C0C092C306D092C4066E
:10442000E092C506F092C6060DC06093C7061092D2
:10443000C80608C0C092C906D092CA06E092CB0650
:10444000F092CC060E94F62080E001C083E01F912C
:104450000F91FF90EF90DF90CF9008959DE0899F9E
:10446000C001112480509E4F4CE050E00E94422039
:1044700008950F931F93CF93DF93162F072F9DE07F
:10448000899FE0011124C050DE4F862F972FBE0177
:104490004CE050E00E948B20892B11F081E00FC08E
:1044A000E12FF02F8CE0DF011D928A95E9F7CE0114
:1044B000612F702F4CE050E00E94422080E0DF919D
:1044C000CF911F910F910895CF92DF92EF92FF92BB
:1044D0000F931F93DF93CF93CDB7DEB72C970FB613
:1044E000F894DEBF0FBECDBFE82E80FFC1C08AE0CA
:1044F0008093B00689E18093B3061092B1061092C2
:10450000B20683E08093B4068AE097EDA3E2BCE3B1
:104510008093B5069093B606A093B706B093B806FD
:104520008FE692E1A3E0BBE38093B9069093BA06CD
:10453000A093BB06B093BC061092BE0680E090E04C
:10454000A8ECB1E48093BF069093C006A093C10687
:10455000B093C20620E030E04AEF53E42093C30654
:104560003093C4064093C5065093C6068AEF90E088
:104570009093C8068093C70680E090E0A0E8BFE370
:104580008093C9069093CA06A093CB06B093CC063D
:104590001092BD0680E090E0AAE7B3E48093800625
:1045A00090938106A0938206B0938306809384063D
:1045B00090938506A0938606B0938706809388061D
:1045C00090938906A0938A06B0938B0620938C065D
:1045D00030938D0640938E0650938F06209390065D
:1045E000309391064093920650939306209394063D
:1045F00030939506409396065093970680E090EA94
:10460000ACE0B7E48093980690939906A0939A063D
:10461000B0939B0680939C0690939D06A0939E0664
:10462000B0939F068093A0069093A106A093A20644
:10463000B093A30680E090E0A8E4B3EC8093A406D6
:104640009093A506A093A606B093A7068093A8060C
:104650009093A906A093AA06B093AB068093AC06EC
:104660009093AD06A093AE06B093AF060E94F620DD
:10467000E1FE16C0FE0131968CE0DF011D928A95A5
:10468000E9F700E012E06F01C801B6014CE050E02C
:104690000E944220035F1F4FB2E008361B07A1F7BC
:1046A000E2FE0AC080E093E060E00E94202081E505
:1046B00093E060E00E942020E3FE05C08EEA93E0D4
:1046C00060E00E9420202C960FB6F894DEBF0FBE4B
:1046D000CDBFCF91DF911F910F91FF90EF90DF90B1
:1046E000CF9008950E94E020882341F487E00E9443
:1046F000FC2F8FEF0E9464220E9417330895BC01A3
:104700008EEA93E040E550E00E9442200895CF9366
:10471000DF93EC016EEA73E040E550E00E948B20ED
:10472000892B11F081E009C018828EEA93E0BE0166
:1047300040E550E00E94422080E0DF91CF91089553
:1047400091E5899FC001112480509D4F40E550E0C4
:104750000E94422008950F931F93CF93DF938B0104
:1047600091E5899FE0011124C050DD4FCB01BE01CE
:1047700040E550E00E948B20892B11F081E009C0B8
:10478000F8011082CE01B80140E550E00E944220BD
:1047900080E0DF91CF911F910F910895209107053F
:1047A00080910805821769F0922F9F5F923109F47A
:1047B00090E080910A05281711F490930A059093D0
:1047C000070508959091070580910805891719F448
:1047D00020E030E006C089E2989F900111242B5D13
:1047E0003D4FC901089520E090910705809109058A
:1047F000981709F421E0822F08958091080590917F
:104800000705891710F0891B08958E5E891B08958E
:104810004F925F926F927F928F929F92AF92BF92D0
:10482000CF92DF92EF92FF920F931F93CF93DF937C
:1048300080910805882309F482E1782E7A946090AB
:104840000A05761409F4F2C089E2789E4001112429
:1048500085E292E0880E991EF401A588B688C78883
:10486000D08C21A132A143A154A1CA01B9010E9457
:104870006037F40125A136A147A150A50E94773ADF
:104880007B018C01B501C601A80197010E9439384E
:1048900087FD04C0D801C70157016D01C501D601CC
:1048A000F401818B928BA38BB48B772011F432E1CE
:1048B000732E7A94761409F04EC08091070568161D
:1048C00009F050C00E94C7164DC0769CE00111242B
:1048D000CB5DDD4F772011F422E1722E7A94809126
:1048E0000705781611F40E94C716AD88BE88CF88D8
:1048F000D88C69897A898B899C89A60195010E9447
:104900003938882331F129A13AA14BA15CA1CA0110
:10491000B9010E9460372DA13EA14FA158A50E9468
:10492000773AF40121893289438954890E9460379A
:104930007B018C01A60195010E94393888232CF453
:10494000E98AFA8A0B8B1C8B04C0A98ABA8ACB8AA3
:10495000DC8A4E0102C099E2692E80910A05781620
:1049600009F0B3CFA0900A05BA2CB394F2E1BF16B8
:1049700009F4BB2489E2A89E800111240B5D1D4F20
:104980005090080589E2482E4CC0B49CE0011124E7
:10499000CB5DDD4FF801C188D288E388F48869884F
:1049A0007A888B889C88C701B601A40193010E9474
:1049B000393888231CF5F80121A132A143A154A163
:1049C000CA01B9010E946037F80125A136A147A1AB
:1049D00050A50E94773A9B01AC01C701B6010E9425
:1049E00060377B018C01A40193010E943938882330
:1049F0002CF4E98AFA8A0B8B1C8BAB2C69897A8997
:104A00008B899C892D893E894F89588D0E94393820
:104A1000882309F4AB2CB394F2E1BF1609F4BB244C
:104A20008E01B51409F0B1CFA0920A05DF91CF91A4
:104A30001F910F91FF90EF90DF90CF90BF90AF90BC
:104A40009F908F907F906F905F904F9008950E94FD
:104A5000C7168091070580930A050E9408240895CF
:104A60001F9310E0112369F48BE295E00E94D63485
:104A700060930B0570930C0580930D0590930E05C4
:104A80001FC0113069F48BE295E00E94EC34609312
:104A90000F0570931005809311059093120510C0B7
:104AA0008091330590913405A0913505B09136057C
:104AB0008093130590931405A0931505B0931605E4
:104AC0001F5F133079F61F910895209107052F5F1E
:104AD000223109F420E080910805281729F460E0CC
:104AE00070E080E090E012C030E089E290E0289F22
:104AF000F001299FF00D389FF00D1124EB5DFD4F63
:104B000061897289838994890E94043B08952F9258
:104B10003F924F925F926F927F928F929F92AF924D
:104B2000BF92CF92DF92EF92FF920F931F93DF938A
:104B3000CF93CDB7DEB7E2970FB6F894DEBF0FBEC6
:104B4000CDBF9AA789A74BA75CA76DA77EA7422ECA
:104B50009091080589E2989F4001112425E232E0F6
:104B6000820E931ED4011D961D921D921D921C92C1
:104B7000509780E090E0A0E0B0E0F40185A396A318
:104B8000A7A3B0A7108289E996E7A6E9BEE781A3AB
:104B900092A3A3A3B4A3A9A5BAA56D917D918D916C
:104BA0009C9120918006309181064091820650911F
:104BB00083060E94773A0E94473A7B018C01E98282
:104BC000FA820B831C83E9A5FAA56481758186812D
:104BD00097812091840630918506409186065091F8
:104BE00087060E94773A0E94473A9B01AC012D83C9
:104BF0003E834F8358872E0D3F1D401F511F8091CC
:104C00000F0590911005A0911105B0911205281B78
:104C1000390B4A0B5B0B80910B0590910C05A09111
:104C20000D05B0910E05281B390B4A0B5B0B57FF86
:104C300007C050954095309521953F4F4F4F5F4F9E
:104C4000D40111962D933D934D935C93149720912D
:104C50000F05309110054091110550911205898181
:104C60009A81AB81BC81280F391F4A1F5B1F8D8140
:104C70009E81AF81B885281B390B4A0B5B0B809155
:104C80000B0590910C05A0910D05B0910E05281B08
:104C9000390B4A0B5B0B57FF07C050954095309579
:104CA00021953F4F4F4F5F4FF40125833683478354
:104CB00050879A8E898E40E8242E46E0342E552463
:104CC0006624772442C0F2E05F16A1F5A9A5BAA533
:104CD00018966D917D918D919C911B9720918806DE
:104CE0003091890640918A0650918B060E94773A4E
:104CF0000E94473A9B01AC0129873A874B875C8722
:104D00008091130590911405A0911505B091160599
:104D1000281B390B4A0B5B0B57FF07C0509540957A
:104D2000309521953F4F4F4F5F4FF40121873287D8
:104D30004387548724E030E0620E731E898D9A8D7C
:104D400004969A8F898F220E331EA98DBA8D1196E3
:104D50002D913D914D915C911497F4018585968537
:104D6000A785B08982179307A407B50710F4DA0165
:104D7000C901F40185879687A787B08B552009F56F
:104D80006D817E818F81988529813A814B815C81FB
:104D9000620F731F841F951F20910B0530910C0526
:104DA00040910D0550910E05621B730B840B950B02
:104DB00020910F0530911005409111055091120579
:104DC00040C0B1E05B1661F569817A818B819C817D
:104DD00020910B0530910C0540910D0550910E0569
:104DE000621B730B840B950B2D813E814F8158857F
:104DF000621B730B840B950B20910F0530911005EE
:104E00004091110550911205620F731F841F951F69
:104E10000E94DB38F10120813181428153811CC025
:104E2000E1E0F0E0EC0FFD1FE60DF71DD301A55FFB
:104E3000BA4F60817181828193812D913D914D9115
:104E40005C91621B730B840B950B0E94DB38D101C4
:104E50002D913D914D915C910E9440385B016C0118
:104E6000EDE0F0E0EC0FFD1FE60DF71D60837183B0
:104E70008283938320E030E040E050E00E943938A4
:104E8000882344F4F4011081852D0E94CC20182B36
:104E9000D4011C93F401E5A0F6A007A110A5C6015A
:104EA000B501A60195010E94773A9B01AC01C801AA
:104EB000B7010E9460377B018C01CB01D801F4015E
:104EC00085A396A3A7A3B0A75394F3E05F1609F0B8
:104ED000FACEB701C8010E94043B7B018C01D401CA
:104EE00095966D937D938D939C9398971D968D9138
:104EF0009D910D90BC91A02D0097A105B10509F4DD
:104F00000BC26BA57CA58DA59EA520E030E040E0FE
:104F100050E00E94393888232CF489E996E7A6E905
:104F2000BEE71EC0442061F06BA57CA58DA59EA5A3
:104F3000A80197010E94773A6BA77CA78DA79EA72F
:104F40006BA57CA58DA59EA520E030E040E85FE341
:104F50000E943938882344F480E090E0A0E8BFE361
:104F60008BA79CA7ADA7BEA760E070E080E89FE399
:104F7000A80197010E9440386DA37EA38FA398A734
:104F8000DE011D96B8A3AF8FE7E1F5E0FE8FED8F50
:104F90002CE836E03C8F2B8F80E090E0A0E0B0E082
:104FA00089A39AA3ABA3BCA3DE015996BAABA9AB64
:104FB000EF8DF8A1E080F18002811381C801B70173
:104FC00020E030E040E050E00E943938882309F4C6
:104FD0007CC0C801B7012DA13EA14FA158A50E94D8
:104FE000773A2B013C01AF8DB8A16D937D938D93E2
:104FF0009C93139760E070E080E89FE3A301920127
:105000000E9440385B016C01E894D7F8C601B501F5
:10501000EB8DFC8D20813181428153810E94773A52
:105020007B018C016BA57CA58DA59EA5A801970190
:105030000E94393887FD04C0EBA6FCA60DA71EA769
:10504000D4019196BC91BFA7F401F2A1F8ABD401B1
:1050500093962C90939794963C90C601B501EB8D56
:10506000FC8D24853585468557850E94773A7B01DE
:105070008C016FA578A9C101A80197010E94393858
:1050800087FD05C0D801C701EFA698AB1D018FA50C
:1050900098A9D101F40181A392A3A3A3B4A3C3014E
:1050A000B201AD8DBE8D2D913D914D915C910E94CF
:1050B000773A9B01AC0169A17AA18BA19CA10E94C6
:1050C0005F3769A37AA38BA39CA3EF8DF8A13496D5
:1050D000F8A3EF8F2D8D3E8D2C5F3F4F3E8F2D8F90
:1050E0008B8D9C8D04969C8F8B8FA9A9BAA9EA17EA
:1050F000FB0709F05DCF909108058091070598178F
:1051000051F480E090E0A0E0B0E0F401818B928B5C
:10511000A38BB48B11C069A17AA18BA19CA12FEEA6
:105120003FEF4FE75FE30E943C3A181654F480E0EB
:1051300090E0A0E0B0E0F401818F928FA38FB48F54
:1051400066C069A17AA18BA19CA12FEE3FEF4FE72A
:105150005FEB0E943C3A181644F08FEE9FEFAFE7EA
:10516000BFEB89A39AA3ABA3BCA360E070E080E887
:105170009FE329A13AA14BA15CA10E945F3720E0E7
:1051800030E040E05FE30E94773A0E94043B5B011D
:105190006C01D40191966D917D918D919C91949724
:1051A0002091B5063091B6064091B7065091B806E9
:1051B0000E94773AA60195010E94773A7B018C0103
:1051C00060E070E080E89FE3A60195010E945F37F0
:1051D0009B01AC01C801B7010E9440387B018C01E2
:1051E00020E030E040E050E00E943938882354F459
:1051F0000F2EF0E0EF2EF0E0FF2EF0E00F2FF0E0AA
:105200001F2FF02DF401E18EF28E038F148F6BA50A
:105210007CA58DA59EA59B01AC010E94773A7B01E0
:105220008C01D4015D966D937D938D939C939097A3
:1052300059965C9059975A964C905A975B963C9029
:105240005B975C962C90D0902305C0902405B0907D
:105250002505A09026052D2D3C2D4B2D5A2D0E9465
:10526000393887FD04C06D2C7C2CF50105C0D801B0
:10527000C7013701FA2FEB2F652D742D832D922D49
:1052800093014F2F5E2F0E94393888232CF4852DEF
:10529000942DA32DB22D0EC0C801B7012D2D3C2D8C
:1052A0004B2D5A2D0E94393887FD06C08D2D9C2D1F
:1052B000AB2DBA2D7C018D01F401E58AF68A078BAE
:1052C000108FA7E1B5E0FE013D968CE001900D92B4
:1052D0008150E1F7F401858D968DA78DB0A1809363
:1052E000230590932405A0932505B0932605ABE0F4
:1052F000B5E0FE0131968CE001900D928150E1F70E
:1053000080910905809308058F5F823109F480E060
:10531000809309050E940824E2960FB6F894DEBF38
:105320000FBECDBFCF91DF911F910F91FF90EF90F6
:10533000DF90CF90BF90AF909F908F907F906F90B5
:105340005F904F903F902F9008958CE1EBE0F5E057
:10535000DF011D928A95E9F7109207051092080562
:1053600081E08093090510920A0508956F927F925B
:105370008F929F92AF92BF92CF92DF92EF92FF9265
:105380000F931F93CF93DF934C013B015A01FB0115
:105390008081F401E80FF11DEF0189918D3229F42C
:1053A00081812196CC24C39405C08B3211F4818174
:1053B0002196CC2420E030E040E050E0DD24E0E025
:1053C00070E0682F60536A30F8F4EF5FE930C0F4A2
:1053D0007111DA94DA01C901F2E0880F991FAA1F4E
:1053E000BB1FFA95D1F7280F391F4A1F5B1F220FE9
:1053F000331F441F551F260F311D411D511D09C06C
:10540000772339F4D39405C06E3F29F4772319F438
:1054100071E08991D6CFEE2311F480E050C0CA012B
:10542000B9010E94D9387B018C0120E030E040E0D6
:1054300050E00E943938882369F42BC0C801B701B5
:105440002AE037ED43E25CE30E94773A7B018C016E
:10545000F2E0DF0E8FEFD8168CF3D81659F4C8019E
:10546000B7012DEC3CEC4CEC5DE30E94773A7B01FC
:105470008C010FC0DD2069F0C801B70120E030E0E9
:1054800040E251E40E94773A7B018C01DA941D14CA
:105490009CF3CC2049F0D801C701B058F5018083B6
:1054A0009183A283B38305C0F501E082F182028378
:1054B0001383882D80958C0FF301808381E0DF9129
:1054C000CF911F910F91FF90EF90DF90CF90BF9001
:1054D000AF909F908F907F906F90089520EA3FE06B
:1054E00004C0F9013197F1F701970097D1F70895BA
:1054F000AF92BF92CF92DF92EF92FF920F931F93E2
:105500007B018C0159016A01A80197010E94773A39
:105510007B018C01C601B501A60195010E94773A75
:105520009B01AC01C801B7010E9460370E94043B97
:105530001F910F91FF90EF90DF90CF90BF90AF90B1
:10554000089584B1897E84B985B1866185B98091D9
:10555000BD0683FF09C080916B00866180936B005C
:1055600080916800816008C080916B00897E809383
:105570006B00809168008E7F809368000895EBE651
:10558000F0E08081897E8083E8E6F0E080818E7F94
:1055900080830895BF92CF92DF92EF92FF920F9394
:1055A0001F93CF93DF936C01C0E0D0E0BB24B39492
:1055B000F601EC0FFD1FE080F18002811381C8012C
:1055C000B70120E030E040E050E00E943C3A18167D
:1055D0006CF0FE01E058F94FC801B70124A135A1D4
:1055E00046A157A10E943938882314F4B0922A05A5
:1055F00080912A05882319F180912805883091F43B
:105600009FB7F894809145058860809345059FBFBA
:105610000E949114809127058823B1F48091280578
:105620008823B1F70E9442049FB7F8948091470500
:105630008560809347059FBF0E94911405C0249602
:10564000CC30D10509F0B4CFDF91CF911F910F91EC
:10565000FF90EF90DF90CF90BF9008951F920F9230
:105660000FB60F9211242F933F934F935F936F9335
:105670007F938F939F93AF93BF93EF93FF9380910B
:105680002805813071F080914705882351F40E94EC
:1056900042049FB7F8948091470583608093470543
:1056A0009FBFFF91EF91BF91AF919F918F917F919C
:1056B0006F915F914F913F912F910F900FBE0F907F
:1056C0001F901895EF92FF920F931F93CF93DF9344
:1056D00013B116718091BD0686FD02C086E11827C0
:1056E000112311F400E017C000E0C0E0D0E081E039
:1056F000E82EF12C8C2F0E94D620812341F0C70187
:105700000C2E02C0880F991F0A94E2F7082B2196ED
:10571000C330D10579F7802FDF91CF911F910F9181
:10572000FF90EF9008952F923F924F925F926F9269
:105730007F928F929F92AF92BF92CF92DF92EF9221
:10574000FF920F931F93DF93CF93CDB7DEB7699787
:105750000FB6F894DEBF0FBECDBF8B8B80912705AF
:10576000882309F062C25E010894A11CB11C44EABE
:10577000842E46E0942E4424552466247724CC2499
:10578000DD247B89672F70E0798F688F0C2D8C2D3D
:105790000E94C220D5018C93023051F080E00E941B
:1057A000C220182F81E00E94C220182BF50110831F
:1057B000888D998D02C0959587950A95E2F780FFAF
:1057C00015C0D4016D917D918D919C9120E030E0C8
:1057D00040EC5FEB0E94773A7B018C01B201C30180
:1057E000A80197010E943C3A181624F4C201D30183
:1057F0007C018D010894C11CD11C0894A11CB11C12
:10580000E4E0F0E08E0E9F1EF3E0CF16D10429F005
:10581000D801C70127013D01B9CF6090C306709040
:10582000C4068090C5069090C6066B8160956A8B11
:105830007A818981782B7095798B3324339483E036
:10584000888BCE0104966BE275E00E94443534E00B
:10585000A32EB12CAC0EBD1E44242224CC24DD2466
:10586000C801B70190586C8B7D8B8E8B9F8B5C2C05
:10587000888D998D0C2C02C0959587950A94E2F736
:1058800080FF76C0CC20E1F48BE295E00E94EC34FE
:1058900060932B0570932C0580932D0590932E0516
:1058A00090958095709561957F4F8F4F9F4F609336
:1058B0002F0570933005809331059093320520C0F9
:1058C00071E0C716A9F48BE295E00E94D63460938C
:1058D0002F057093300580933105909332056093C6
:1058E0002B0570932C0580932D0590932E0508C0F1
:1058F000109233051092340510923505109236053A
:105900008091BE0690E002C0959587955A94E2F783
:1059100080FF13C0332051F08C899D89AE89BF89E7
:10592000F50180839183A283B38319C0D501ED92E1
:10593000FD920D931C93139712C0332031F0F501A3
:10594000E082F182028313830AC06C897D898E898B
:105950009F89D5016D937D938D939C931397239489
:10596000E1E0F0E0EC0FFD1FEC0DFD1D8081482A09
:105970000894C11CD11CE4E0F0E0AE0EBF1EF3E0C1
:10598000CF16D10409F073CF622D70E080E090E073
:105990000E94D9380E94043B7B018C01409244054F
:1059A0000E943025C401B301A80197010E94773AF3
:1059B000AB01BC01CE01049620E00E9487250E9425
:1059C000E9160E946716332031F10E94622B20E015
:1059D00030E0482F50E0E1E0F0E0EC0FFD1FE20F77
:1059E000F31F8081842181F0BA01022E02C07595D7
:1059F00067950A94E2F760FF07C0223019F47A89AC
:105A0000472202C0898948222F5F3F4F233031054A
:105A100011F7409244050E94E91680914505847370
:105A2000D1F080914505807341F4332009F0F8C02E
:105A30000E94622B9B89892329F00E9442040E94C4
:105A40009114F3C09FB7F894809145058B7F8093A4
:105A500045059FBF04C0842D8C7109F0B4CF0E940E
:105A6000B61D0E94A5298091C7069091C8060E9484
:105A70006E2AA1E03A26C9F06091C9067091CA0663
:105A80008091CB069091CC0620E030E040EA50E4D3
:105A90000E94773A7B018C016090BF067090C0062F
:105AA0008090C1069090C20610C0E090C906F090A8
:105AB000CA060091CB061091CC066090C306709088
:105AC000C4068090C5069090C606B889BB2319F01D
:105AD000B150B88BB6CE2BE2822E25E0922E90E804
