:100000000C941E040C9430040C9430040C945C0486
:100010000C94F8100C9430040C9430040C943004BC
:100020000C9430040C9430040C9430040C94C61AD4
:100030000C9430040C9430040C9430040C94300470
:100040000C94591A0C9430040C94571E0C94B51E41
:100050000C9430040C9430040C9430040C94300450
:100060000C9430040C943004C331C931CC31CF31FD
:10007000D431DC31E431553255325532EC31EF3187
:10008000F8310132553255325532553255325532EA
:10009000093213321F3229322C3235323E32443289
:1000A0005907BF0FBF0F630770077D078A07BF0F90
:1000B0008E07BF0F9C07BF0FA607B007DB07BF0F58
:1000C000BF0FBF0FBA07C507D007890E9A0EB90E2A
:1000D0009A0EBD0ED00EC30EC90EE60EEC0EFB0E30
:1000E0000E0F270F310F3C0F460F0C1F0F1F141F51
:1000F000171F1A1F1D1F201F231F261F291F2C1FFC
:10010000381F381F381F381F381F381F381F381F37
:10011000321F2F1F351F084AD73B3BCE016E84BCD0
:10012000BFFDC12F3D6C74319ABD56833DDA3D0051
:10013000C77F11BED9E4BB4C3E916BAAAABE00009A
:1001400000803F05A84CCDB2D44EB93836A9020C78
:1001500050B9918688083CA6AAAA2ABE0000008051
:100160003F000D0A4772626C20302E3969205B27F0
:10017000242720666F722068656C705D0D0A000D83
:100180000A003D00244E005D0D0A005B302E3969E7
:100190002E32303135303632303A005D0D0A005B98
:1001A000544C4F3A005D0D0A002C005B4739323A3F
:1001B000005D0D0A002C003A003330003238005B3D
:1001C00047005D0D0A002053002046002054002007
:1001D0004D3800204D3900204D3500204D34002091
:1001E0004D3300204D3200204D3100204D30002095
:1001F0004739340020473933002047393100204740
:10020000393000204732300020473231002047315A
:100210003900204731380020473137002047004758
:1002200033382E004738300047330047320047311B
:10023000004730005B00242420287669657720473A
:1002400072626C2073657474696E6773290D0A2479
:1002500023202876696577202320706172616D659F
:1002600074657273290D0A24472028766965772002
:10027000706172736572207374617465290D0A244C
:1002800049202876696577206275696C6420696EFB
:10029000666F290D0A244E202876696577207374CD
:1002A000617274757020626C6F636B73290D0A2420
:1002B000783D76616C75652028736176652047729C
:1002C000626C2073657474696E67290D0A244E7818
:1002D0003D6C696E65202873617665207374617268
:1002E00074757020626C6F636B290D0A244320289B
:1002F000636865636B2067636F6465206D6F646519
:10030000290D0A245820286B696C6C20616C61727D
:100310006D206C6F636B290D0A2448202872756E5E
:1003200020686F6D696E67206379636C65290D0ABB
:100330007E20286379636C65207374617274290D63
:100340000A2120286665656420686F6C64290D0A9F
:100350003F202863757272656E74207374617475C2
:1003600073290D0A6374726C2D7820287265736589
:1003700074204772626C290D0A006F6B0D0A005DD4
:100380000D0A00526573746F72696E67206465664A
:1003900061756C74730050676D20456E640043682E
:1003A00065636B20446F6F720044697361626C65B2
:1003B0006400456E61626C65640043617574696FC9
:1003C0006E3A20556E6C6F636B6564002724482776
:1003D0007C2724582720746F20756E6C6F636B0028
:1003E000526573657420746F20636F6E74696E75E7
:1003F00065005B000D0A00496E76616C69642067D8
:10040000636F64652049443A00556E646566696EA1
:1004100065642066656564207261746500556E735D
:100420007570706F7274656420636F6D6D616E645A
:10043000004D6F64616C2067726F75702076696F14
:100440006C6174696F6E004C696E65206F766572C1
:10045000666C6F7700486F6D696E67206E6F7420F1
:10046000656E61626C656400416C61726D206C6FD9
:10047000636B004E6F742069646C65004545505293
:100480004F4D2072656164206661696C2E20557342
:10049000696E672064656661756C74730056616C83
:1004A0007565203C20332075736563005365747453
:1004B000696E672064697361626C65640056616C83
:1004C0007565203C203000496E76616C696420734C
:1004D000746174656D656E7400426164206E756D43
:1004E00062657220666F726D617400457870656335
:1004F00074656420636F6D6D616E64206C657474E7
:100500006572006572726F723A20000D0A00486FC2
:100510006D696E67206661696C0050726F6265205C
:100520006661696C0041626F727420647572696EF5
:1005300067206379636C6500536F6674206C696D26
:1005400069740048617264206C696D697400414C83
:1005500041524D3A20003E0D0A002C4C696D3A0084
:100560002C52583A002C4275663A002C002C5750F9
:100570006F733A002C002C4D506F733A003C446F5F
:100580006F72003C436865636B003C416C61726D47
:10059000003C486F6D65003C486F6C64003C5275D0
:1005A0006E003C49646C6500290D0A00206D61787D
:1005B0002074726176656C2C206D6D002061636320
:1005C000656C2C206D6D2F7365635E3200206D614C
:1005D0007820726174652C206D6D2F6D696E002C12
:1005E00020737465702F6D6D007A0079007800209B
:1005F00028003D0024002028686F6D696E67207018
:10060000756C6C2D6F66662C206D6D290D0A0020AF
:1006100028686F6D696E67206465626F756E6365CB
:100620002C206D736563290D0A2432373D00202884
:10063000686F6D696E67207365656B2C206D6D2F1B
:100640006D696E290D0A2432363D002028686F6DD1
:10065000696E6720666565642C206D6D2F6D696E0F
:10066000290D0A2432353D00290D0A2432343D007B
:100670002028686F6D696E672064697220696E76E4
:10068000657274206D61736B3A002028686F6D6924
:100690006E67206379636C652C20626F6F6C290D27
:1006A0000A2432333D00202868617264206C696D31
:1006B0006974732C20626F6F6C290D0A2432323DED
:1006C000002028736F6674206C696D6974732C2028
:1006D000626F6F6C290D0A2432313D00202872654B
:1006E000706F727420696E636865732C20626F6F1F
:1006F0006C290D0A2432303D002028617263207479
:100700006F6C6572616E63652C206D6D290D0A2416
:1007100031333D0020286A756E6374696F6E206402
:100720006576696174696F6E2C206D6D290D0A24E0
:1007300031323D00290D0A2431313D0020287374E7
:1007400061747573207265706F7274206D61736B64
:100750003A00202870726F62652070696E20696EA1
:10076000766572742C20626F6F6C290D0A2431300B
:100770003D0020286C696D69742070696E73206972
:100780006E766572742C20626F6F6C290D0A2436A8
:100790003D0020287374657020656E61626C652071
:1007A000696E766572742C20626F6F6C290D0A2455
:1007B000353D00290D0A24343D002028646972204B
:1007C000706F727420696E76657274206D61736BE0
:1007D0003A00290D0A24333D0020287374657020E7
:1007E000706F727420696E76657274206D61736BC0
:1007F0003A002028737465702069646C6520646514
:100800006C61792C206D736563290D0A24323D00DB
:100810002028737465702070756C73652C20757357
:100820006563290D0A24313D0024303D005D0D0A29
:10083000003A002C005B5052423A000011241FBEC7
:10084000CFEFD8E0DEBFCDBF26E0A0E0B1E001C031
:100850001D92AD3CB207E1F70E94582B0C94153C59
:100860000C940000EBE6F0E08081897E8083E8E66E
:10087000F0E080818E7F8083089584B1897E84B981
:1008800085B1866185B98091630683FF0BC0809135
:100890006B00866180936B0080916800816080931B
:1008A000680008950C943204F999FECF92BD81BD81
:1008B00081E08FBB80B508951F920F920FB60F9203
:1008C00011242F933F934F935F936F937F938F9355
:1008D0009F93AF93BF93EF93FF938091AE068130C8
:1008E00071F08091B10681110AC00E947B2A9FB7E6
:1008F000F8948091B10683608093B1069FBFFF9109
:10090000EF91BF91AF919F918F917F916F915F9187
:100910004F913F912F910F900FBE0F901F90189500
:1009200093B196718091630686FD02C086E1982797
:10093000992349F091FB882780F992FD826090719C
:1009400019F08460089580E008958F929F92AF928D
:10095000BF92CF92DF92EF92FF920F931F93CF93AC
:100960004B017A016C01C40ED51E8C01C0E05B0105
:10097000A81AB90AC501800F911F0C151D0599F021
:100980000E945404C11108C02C2FCC0F330B232F0D
:10099000221F2227221F01C021E0C22FC80FF80109
:1009A00081938F01E7CFC4018E0D9F1D0E945404D7
:1009B00021E030E0C81711F020E030E0C901CF910C
:1009C0001F910F91FF90EF90DF90CF90BF90AF906D
:1009D0009F908F900895F894F999FECF92BD81BDB4
:1009E00081E08FBB80B58627482F082E000C550B61
:1009F000262F30E024233523232B39F06F3F19F0C5
:100A000060BD84E006C084E104C0882321F060BD9D
:100A100084E28FBBF99A789408958F929F92AF9257
:100A2000BF92CF92DF92EF92FF920F931F93CF93DB
:100A30007C014A016B01C40ED51E8B01C0E05C0134
:100A4000A61AB70AC8018A0D9B1D0C151D0599F041
:100A5000C11108C02C2FCC0F330B232F221F2227AC
:100A6000221F01C021E0F80161918F01C22FC60F42
:100A70000E94EB04E7CF6C2FC701880D991DCF9121
:100A80001F910F91FF90EF90DF90CF90BF90AF90AC
:100A90009F908F900C94EB04439808952F923F926F
:100AA0004F925F926F927F928F929F92AF92BF927E
:100AB000CF92DF92EF92FF920F931F93CF93DF932A
:100AC000CDB7DEB7E2970FB6F894DEBF0FBECDBF4D
:100AD00089E3E4E7F6E0DF011D928A95E9F78AE011
:100AE000E7EEF5E0A5E7B6E001900D928A95E1F713
:100AF0001D8E212C312CE12CF12C1F8E10E01E8E2E
:100B000066246394712CB5E05B2E06E0402E8D8D3B
:100B1000E82FF0E0E956FA4FC080CC2009F46EC20D
:100B20009FEB9C0D9A3110F00C94B10F8F5F8D8F5D
:100B3000BE01675E7F4FCE014D960E94A72A882393
:100B400011F40C94B30F898C9A8CAB8CBC8CC501BE
:100B5000B4010E94823B0E94C038062F70E080E002
:100B600090E00E94F1389B01AC01C501B4010E94E4
:100B7000473720E030E048EC52E40E949F3A0E9460
:100B80000C3B0E94C038B7E4CB1629F0EDE4CE163A
:100B900009F437C17DC1083209F40DC1E8F404310C
:100BA00060F4013108F0ADC0043009F44CC008F421
:100BB00064C00A30E1F10C94BF0F0C31C1F128F48C
:100BC000063108F4D0C00C94BF0F0E3181F106320B
:100BD00009F453C00C94BF0F0D3309F4E6C0B0F410
:100BE000053309F446C040F40B3209F4C6C00133A2
:100BF00009F4C3C00C94BF0F0C3310F00C94BF0F5A
:100C00008AEC800F80937B0689E0D8C00C3540F4D5
:100C10000A3508F086C0003509F46FC00C94BF0F88
:100C20000C3529F00F3508F494C00C94BF0F6115F2
:100C3000710511F00C94CF0FFE8DFF2311F40C946D
:100C4000DE0F0C94B50F21E0209374060AC00F311B
:100C500050F40A3009F0B6C031E03E8F82E0809354
:100C6000740680E0ABC0053311F00C941510E1E080
:100C7000EE8FF7E0F0937406F4CF9E8D91110C94F3
:100C8000B50FA2E0AE8F023089F028F4002359F0AE
:100C9000013081F092C0063281F0003571F10330ED
:100CA00009F08BC007C01092750687C0BE8DB09347
:100CB000750683C00093750680C06E317105B1F072
:100CC00048F46431710511F00C94BF0FE4E0E09337
:100CD000750611C06832710561F06233710511F05B
:100CE0000C94BF0FF7E0F093750605C0509275069F
:100CF00002C04092750681E074C028E0209375061A
:100D00005CC0023129F0033141F01092790603C032
:100D100031E03093790682E051C082E08093790619
:100D20004DC06115710551F40A3519F41092780619
:100D300003C081E08093780683E053C06A30710578
:100D400011F00C94BF0F0A3511F40C94BF0F84E01E
:100D500048C00D3521F491E09093760602C01092C0
:100D6000760685E02BC0043121F4A1E0A09377063C
:100D700002C01092770686E021C0BE8DB1110C949E
:100D8000B50F013331F410927A0688E0E3E0EE8F7C
:100D900028C06A30710511F00C94BF0FF1E0F09398
:100DA0007A0688E023E02E8F1CC0672B11F00C948C
:100DB000BF0F8AE016C087E001C081E0672B89F091
:100DC0000C94DA0F0C3111F00C94111081E08E8F1D
:100DD0006115710511F00C94F20F93E09093740675
:100DE00080E0D30102C0AA0FBB1F8A95E2F7CD01B4
:100DF0009D012E213F21232B09F447C085E10C944E
:100E00001E10672B11F00C94DA0F063018F4033023
:100E100058F018C0083010F40C94BF0F0A3010F1CD
:100E20000E3161F00C94BF0F023041F00E3131F001
:100E3000011122C0B1E0B0937C061EC082E0809315
:100E40007C061AC0043031F0053041F0E1E0E09357
:100E50007E0606C082E080937E0602C010927E0667
:100E60008CE00BC0093021F082E080937D0602C047
:100E700010927D068DE001C08BE0930102C0220F2D
:100E8000331F8A95E2F7C901B4CFE82AF92A3FCE89
:100E90008C2DCC0C990BAA0BBB0BFC01E654F10971
:100EA000E531F10510F00C94BF0FE05BFF4F0C949F
:100EB000F53B80927F0690928006A0928106B092C8
:100EC000820680E079C08092830690928406A09288
:100ED0008506B09286063F8D31603F8F81E06CC001
:100EE0008092870690928806A0928906B0928A0620
:100EF0008F8D82608F8F82E05FC080928B06909290
:100F00008C06A0928D06B0928E069F8D94609F8F66
:100F100083E052C000938F0684E04EC0C501B40147
:100F20000E94B93860939006709391068093920660
:100F30009093930685E040C0809294069092950627
:100F4000A0929606B092970686E036C080929806E8
:100F500090929906A0929A06B0929B0687E02CC0C8
:100F600080929C0690929D06A0929E06B0929F064B
:100F700088E022C08092A1069092A206A092A306C9
:100F8000B092A40611608AE017C08092A5069092E4
:100F9000A606A092A706B092A80612608BE00CC02D
:100FA0008092A9069092AA06A092AB06B092AC06D7
:100FB00014608CE001C089E06301082E02C0CC0CF3
:100FC000DD1C0A94E2F7960122213321232B09F03C
:100FD000CEC7A1E6B3E002C0B595A7958A95E2F722
:100FE000A0FF09C020E030E0A901C501B4010E94C2
:100FF0003D3887FDBEC72C283D2889CD112329F017
:10100000BE8DB11102C0E2E0EE8F25FE0EC08091D0
:10101000900690919106A0919206B0919306803827
:101020009649A849B1050CF0A6C780917606813093
:1010300031F42E8D2230A1F520FEA7C731C080915A
:10104000E80581112DC020FE1BC0809177068130FC
:1010500039F523E333E34BEC51E460917F06709163
:10106000800680918106909182060E949F3A60934B
:101070007F0670938006809381069093820610C04D
:101080008091F5059091F605A091F705B091F805CE
:1010900080937F0690938006A0938106B09382068A
:1010A00030FC10C08091F1059091F205A091F305FC
:1010B000B091F40580939C0690939D06A0939E06A4
:1010C000B0939F0680917406813031F426FC02C0F3
:1010D0008CE1B4C7E89426F880917906882371F0F2
:1010E000813031F431E038A71FA282E08EA30BC01B
:1010F00018A692E09FA3A1E0AEA305C0B2E0B8A7F6
:10110000E1E0EFA31EA280917706813021F0FE8DF1
:10111000F330A1F52CC0F1EAAF2EF6E0BF2EC12CC2
:10112000D12C812E912CC4010C2C02C09595879551
:101130000A94E2F780FF10C023E333E34BEC51E461
:10114000D5016D917D918D919C910E949F3AF50101
:101150006083718382839383FFEFCF1ADF0A24E0D9
:10116000A20EB11C33E0C316D104E9F6D0CF8091B2
:101170007A06813019F4143009F0FFC68CE0EAE0F9
:10118000F6E0DE011D9601900D928A95E1F7F1FCE3
:1011900008C0009174060230B9F0083009F4B0C0FC
:1011A00013C180917B06873010F08DE147C7909185
:1011B000ED05981771F3BE01635F7F4F0E94321DEA
:1011C000882309F4EAC6E5CF111102C08AE136C7C7
:1011D000C10180759927892B09F47ACF6091940613
:1011E0007091950680919606909197060E94823B99
:1011F0000E94C0386730C8F680918F06843129F08C
:10120000823009F0BCC627FCBAC68FEA28226623C2
:1012100019F061506BA303C090917B069BA3BE01A4
:101220006F5F7F4F8BA10E94321D882309F4B5C6E2
:1012300000918F064090220650902306609024066D
:1012400070902506DE0111967D01A12CB12CC12CD8
:10125000D12C812E912CC4010C2C02C09595879520
:101260000A94E2F780FF3DC0F501EC58F94FFDA369
:10127000ECA3043159F5F501E951FA4F27A530A93E
:1012800041A952A96789708D818D928D0E9447373F
:10129000ACA1BDA19D962D913D914D915C91D097B2
:1012A0000E944737F7016083718382839383F2E062
:1012B000CF16D104B1F4A30192010E944737D701A0
:1012C0006D937D938D939C9313970BC0ECA1FDA11F
:1012D00085A596A5A7A5B0A9F70180839183A283D0
:1012E000B383FFEFCF1ADF0A24E0A20EB11C34E073
:1012F000E30EF11C83E0C816D10409F0ACCF17C18E
:10130000112309F463CF4090220650902306609089
:10131000240670902506E1EAEE2EE6E0FE2EA12CD2
:10132000B12CC12CD12C812E912CF501E951FA4F11
:10133000C4010C2C02C0959587950A94E2F780FFB2
:101340002BC0ADE0B0E0AC0FBD1FAA0DBB1D2D91B1
:101350003D914D915C916789708D818D928D0E9438
:101360004737D7012D913D914D915C910E944737B0
:10137000F7016083718382839383F2E0CF16D104F7
:10138000A1F4A30192010E944737D7016D937D9389
:101390008D939C93139709C087A590A9A1A9B2A981
:1013A000F70180839183A283B383FFEFCF1ADF0A13
:1013B00024E0A20EB11C34E0E30EF11C83E0C81659
:1013C000D10409F0B2CFB2C09E8D933051F40530F4
:1013D00009F495C0073009F4A4C0033009F0A6C091
:1013E00086C0112309F498C0A0917806ABA3409061
:1013F00022065090230660902406709025066EEF1A
:10140000A62E65E0B62E71EAE72E76E0F72E4E01A5
:10141000BDE08B0E911CC12CD12CE12FF0E0FDA37F
:10142000ECA38CA19DA10C2C02C0959587950A94E4
:10143000E2F780FD0BC0F50180819181A281B3812B
:10144000F70180839183A283B3833FC00730E9F122
:10145000FBA1F11129C0D50158962D913D914D91D7
:101460005C915B97F40160817181828193810E941C
:101470004837D7012D913D914D915C910E9448379D
:10148000F7016083718382839383F2E0CF16D104E6
:10149000E1F4A30192010E944837D7016D937D9337
:1014A0008D939C93139711C0F50120813181428166
:1014B0005381D7016D917D918D919C910E94483708
:1014C000F7016083718382839383FFEFCF1ADF0A72
:1014D00024E0A20EB11C34E0E30EF11C84E0880E7F
:1014E000911C93E0C916D10409F09BCF70CF111164
:1014F00001C01E8EBE016F5F7F4F86E007C01111D5
:1015000001C01E8EBE016F5F7F4F87E00E94321DBB
:10151000882309F442C50AC0053099F3073009F061
:1015200089C580917506823008F02BC51BA20091F9
:101530007506083041F4112309F4DAC1AE8DA130EB
:1015400009F021C5B9C2BE8DB23009F0D1C1002366
:10155000D9F020E030E0A90160917F06709180060B
:1015600080918106909182060E943D38882309F47B
:101570000CC5043028F4023058F4013029F09CC224
:10158000083008F474C198C2112309F4B4C194C29C
:10159000112309F41BCEFEA1EF2FF0E0FDA3ECA375
:1015A0003FA1232F30E03AA729A781E090E07C01FA
:1015B0000FA002C0EE0CFF1C0A94E2F70EA002C0BE
:1015C000880F991F0A94E2F7E82AF92A812F90E000
:1015D0008E219F21892B09F4DAC4CF01880F991F2E
:1015E000880F991FFC01EC58F94FDC01A951BA4F43
:1015F00057962D913D914D915C915A9765A576A591
:1016000087A590A90E9447372B013C0189A59AA57F
:10161000880F991F880F991FFC01EC58F94FDC01C6
:10162000A951BA4F57962D913D914D915C915A9782
:1016300065A576A587A590A90E9447374B015C0157
:10164000610180E8C822DD2427FE40C0E89427F825
:101650002091A1063091A2064091A3065091A406C4
:101660006091FE057091FF05809100069091010642
:101670000E943D38811144C12091A5063091A606F3
:101680004091A7065091A80660910206709103064A
:1016900080910406909105060E943D38811130C169
:1016A0002091A9063091AA064091AB065091AC0654
:1016B00060910606709107068091080690910906D0
:1016C0000E943D3881111CC181E2B8C43F8D232F97
:1016D00030E038A32F8FE222F322EF2809F459C417
:1016E00081EF282280917706813009F47BC0ECA13C
:1016F000FDA1EE0FFF1FEE0FFF1FE858F94FC38447
:10170000D484E584F684A7019601C301B2010E9446
:1017100047372B013C01E9A5FAA5EE0FFF1FEE0F9D
:10172000FF1FE858F94F83859485A585B6858F8F6F
:1017300098A3A9A3BAA39C01AD01C501B4010E945D
:1017400047374B015C01A3019201C301B2010E9422
:101750009F3A2B013C01A5019401C501B4010E94EF
:101760009F3A9B01AC01C301B2010E9448370E941D
:101770003E3B4B015C01A7019601C701B6010E94E7
:101780009F3A6B017C012F8D38A149A15AA1CA0152
:10179000B9010E949F3A9B01AC01C701B6010E94AA
:1017A00048370E943E3B6B017C0160939806709322
:1017B000990680939A0690939B069B01AC01C50104
:1017C000B4010E9447374B015C01E894B7F82AE066
:1017D00037ED43EA5BE3C501B4010E945F3A181696
:1017E0004CF16AC104E716E08F8D98A10C2C02C061
:1017F000959587950A94E2F780FF12C023E333E3BF
:101800004BEC51E4D8011F966D917D918D919C9187
:1018100052970E949F3AF8016787708B818B928B59
:10182000FFEFCF1ADF0A0C5F1F4F23E0C216D1046F
:10183000D9F65DCF20E030E040E05FE3C501B401C0
:101840000E945F3A18160CF43FCF2FE632E143E8CE
:101850005AE3C701B6010E949F3A9B01AC01C50142
:10186000B4010E945F3A18160CF42ECF25C1112343
:1018700009F4ACCC2091A1063091A2064091A306B8
:101880005091A4066091FE057091FF0580910006BD
:10189000909101060E943D3881110EC12091A5064C
:1018A0003091A6064091A7065091A80660910206C5
:1018B0007091030680910406909105060E943D38C0
:1018C0008111FAC02091A9063091AA064091AB0679
:1018D0005091AC066091060670910706809108064B
:1018E000909109060E943D38882309F4EDCEE4C0AA
:1018F0003E8D3111E1C0C1018E7D9C7F1E8EDFC007
:10190000809177068130B1F423E333E34BEC51E46B
:10191000609198067091990680919A0690919B0625
:101920000E949F3A609398067093990680939A0656
:1019300090939B068091980690919906A0919A06A3
:10194000B0919B068F8F98A3A9A3BAA3A30192017C
:10195000C301B2010E949F3A6BA77CA78DA79EA7E7
:10196000A5019401C501B4010E949F3A6FA778AB0D
:1019700089AB9AAB20E030E040E850E46F8D78A16D
:1019800089A19AA10E949F3A2F8D38A149A15AA1FD
:101990000E949F3A2BA53CA54DA55EA50E94473706
:1019A0002FA538A949A95AA90E9447376B017C0184
:1019B00020E030E0A9010E943D3887FDFDC2C7014B
:1019C000B6010E943E3B6B017C012FA538A949A9B5
:1019D0005AA96BA57CA58DA59EA50E9448370E949B
:1019E0003E3B9B01AC01C701B60190580E944738AD
:1019F0006B017C01033021F4F7FAF094F7F8F094CE
:101A000020E030E0A9016F8D78A189A19AA10E9400
:101A10003D3887FF11C0F7FAF094F7F8F0948F8DF6
:101A200098A1A9A1BAA1B05880939806909399065D
:101A3000A0939A06B0939B060CA11DA1000F111F45
:101A4000000F111F0858194FA7019601C501B401D5
:101A50000E949F3A9B01AC01C301B2010E9447372B
:101A600020E030E040E05FE30E949F3AD8011B96FF
:101A70006D937D938D939C931E9709A51AA5000FD6
:101A8000111F000F111F0858194FA7019601C3011C
:101A9000B2010E949F3A9B01AC01C501B4010E94B2
:101AA000483720E030E040E05FE30E949F3AF801D1
:101AB0006387748785879687C1018E7D907E892B89
:101AC00009F069C28091900690919106A0919206CA
:101AD000B09193068093FA059093FB05A093FC05C3
:101AE000B093FD05809176068093E80580917F068E
:101AF00090918006A0918106B09182068093F505B1
:101B00009093F605A093F705B093F805C0909C0656
:101B1000D0909D06E0909E06F0909F06A70196014A
:101B20006091F1057091F2058091F3059091F405B3
:101B30000E943D388823C1F08091F005882321F070
:101B4000B701A6010E94A33280919C0690919D0648
:101B5000A0919E06B0919F068093F1059093F205A7
:101B6000A093F305B093F4058091A0068093F90546
:101B700080917E069091F005981771F04091F105E3
:101B80005091F2056091F3057091F4050E94A33223
:101B900080917E068093F00510917D068091EF057F
:101BA000811781F08091AE06823041F00E940533AA
:101BB000123011F4439A02C00E944C0580917D06B8
:101BC0008093EF0580917406813069F080917906E9
:101BD0008093EB05809177068093E9058E8D8330A5
:101BE00009F074C054C08090940690909506A0901F
:101BF0009606B09097068091AE06823039F320E0C9
:101C000030E040EA51E4C501B4010E949F3A0E94CD
:101C10002C390E94C0386B017C010E94053320E002
:101C200030E04AE754E4C501B4010E949F3A4B01F9
:101C30005C0182E38C9DB0018D9D700D112480E0CC
:101C400090E00E94EF389B01AC01C501B4010E94F5
:101C500047370E942C390E94C038CB010E94702A5D
:101C6000C114D10409F4B2CF0E94DC2091E0C91A5A
:101C7000D1088091AD068111A9CFAFEFB0E7E2E0C6
:101C8000A150B040E040E1F700C00000E9CF8091F2
:101C90007A068093EC05813089F48091A9069091B1
:101CA000AA06A091AB06B091AC0680932206909351
:101CB0002306A0932406B093250608C0109222069E
:101CC00010922306109224061092250680917B061E
:101CD0009091ED05981759F08093ED058CE0FE0189
:101CE0003D96AAE0B6E001900D928A95E1F78091C9
:101CF00078068093EA05E09174068E2F90E0FC014F
:101D00003297E830F10508F04BC0EB59FF4F0C94C7
:101D1000F53BBE016F5F7F4F8BA10E94291D809113
:101D2000ED05FBA18F133CC08CE0FE013196AAE0CB
:101D3000B6E01AC02E8D222349F020E040E050E0AA
:101D400060E87FEB81EA96E00E94223320E040E0E9
:101D500050E060E87FEBCE0101960E9422338CE0D8
:101D6000FE013196AEEFB5E001900D928A95E1F754
:101D700017C06EEF75E086E003C06EEF75E087E098
:101D80000E94291D0DC08CE0E1EAF6E0A6E1B6E074
:101D9000EBCF8CE0E6E1F6E0DF011D928A95E9F7F2
:101DA000E0917506E093E705E83009F486C0BE8D42
:101DB000B23009F082C08E2F90E08830910508F093
:101DC00073C0FC01E359FF4F0C94F53B20E040E069
:101DD00050E060E87FEB0AC04091F5055091F605B0
:101DE0006091F7057091F8052091E80581EA96E089
:101DF0000E94223359C02091F5053091F60540919B
:101E0000F7055091F80560919806709199068091B8
:101E10009A0690919B068824839411C02091F50521
:101E20003091F6054091F7055091F80560919806BC
:101E30007091990680919A0690919B06812CA8A496
:101E4000CFA0EEA00091E8050E9468342DC06091FB
:101E5000F5057091F6058091F7059091F80500E081
:101E600009C06091F5057091F6058091F705909194
:101E7000F80501E020E014C06091F5057091F605C9
:101E80008091F7059091F80500E009C06091F50593
:101E90007091F6058091F7059091F80501E021E039
:101EA0004091E8050E94BE338CE0E1EAF6E0AEEF37
:101EB000B5E001900D928A95E1F780917C068093C0
:101EC000EE05882309F4BAC00E9405339091EE050F
:101ED0008091AE06913071F4823009F43EC09FB714
:101EE000F8948091B00688608093B0069FBF0E94EE
:101EF000DC2033C091E09093E7051092EB0510923F
:101F0000EA051092E8051092ED051092F005109286
:101F1000EF058230B1F0BE01635F7F4F80E00E9429
:101F2000321D8823D1F18CE0FE013D96AAE0B6E097
:101F300001900D928A95E1F78FE08093B3000E94A3
:101F40004C0582EF93E00E945C2486E993E00E94B6
:101F50005C248FE793E00E945C241092EE0580E001
:101F60006DC081E06BC082E069C088E167C089E133
:101F700065C084E063C08BE161C085E25FC084E13D
:101F80005DC08EE15BC08FE159C086E157C080E241
:101F900055C083E253C084E251C087E04FC00E3188
:101FA00099F040F50A3011F40C942E060C3111F41E
:101FB0000C94E80687E142C082E240C00E3111F085
:101FC0000C942706B1E0BE8F6115710539F06A30B7
:101FD0007105A9F6409274060C94F00650927406AE
:101FE0000C94F0066A30710551F6A4E0A0937406D3
:101FF0000C94F006053311F40C9439060C35D1F627
:102000006115710549F06A30710509F0B8CF89E0B2
:10201000809374060C94F00638E0309374060C94A8
:10202000F00631E03E8F0C94F0060C35D1F721E03C
:102030002E8FE6CF033009F079CA5BCAE2960FB65D
:10204000F894DEBF0FBECDBFDF91CF911F910F91EE
:10205000FF90EF90DF90CF90BF90AF909F908F90C8
:102060007F906F905F904F903F902F900895CF9307
:10207000DF93C7E9D5E08991882319F00E94DF1E1C
:10208000FACFDF91CF910895CF93DF9321E5829F1F
:10209000C0011124EC01DD5F40E550E0BE0187E99D
:1020A00095E00E94A504892B59F41092970540E50C
:1020B00050E067E975E0CE010E940D0580E001C0A7
:1020C00081E0DF91CF910895CF93C0E08C2F0E94E3
:1020D0004410811104C087E00E94FB1E0AC0809159
:1020E0009705882331F00E9437100E944E050E9408
:1020F000CB20C13011F0C1E0E9CFCF9108950F930B
:102100001F93CF93DF93FC0161111BC0408151816C
:102110006281738184819581A681B7818A019B0147
:10212000080F191F2A1F3B1FC901B8010E94F1386F
:1021300020912606309127064091280650912906C5
:102140001AC0613009F580819181A281B381048137
:10215000158126813781BC01CD01601B710B820B7B
:10216000930B0E94F13820912A0630912B06409162
:102170002C0650912D060E94473820E030E040E0C8
:102180005FE30E949F3A14C014E0619FE0011124B4
:10219000EC0FFD1F60817181828193810E94F13873
:1021A000CA5DD94F288139814A815B810E944738B5
:1021B000DF91CF911F910F910895EF92FF920F93AE
:1021C0001F93CF937B018C01C0E06C2FC7010E944D
:1021D0007F10F80161937193819391938F01CF5F89
:1021E000C33099F7CF911F910F91FF90EF90089511
:1021F0001F920F920FB60F9211242F933F934F937C
:102200005F936F937F938F939F93AF93BF93EF935E
:10221000FF9386B18095877099F080FF03C00E947C
:102220007B2A0EC0982F947021F08091B0068260B6
:1022300005C081FF05C08091B00688608093B0061C
:10224000FF91EF91BF91AF919F918F917F916F918E
:102250005F914F913F912F910F900FBE0F901F9064
:102260001895CF93DF93C0914D05D0914E052097DF
:10227000B9F081E080935005609166057091670523
:1022800080916805909169059B01AC010E949F3A7D
:10229000698B7A8B8B8B9C8B10924E0510924D051F
:1022A000DF91CF9108952F923F924F925F926F925C
:1022B0007F928F929F92AF92BF92CF92DF92EF92D6
:1022C000FF920F931F93CF93DF93CDB7DEB7CE541A
:1022D000D1090FB6F894DEBF0FBECDBF8091AE0618
:1022E000807725968FAF2597882389F020E030E00E
:1022F000A9016091660570916705809168059091CC
:1023000069050E943D38882311F40C94251A209108
:1023100066052B8B309167053C8B409168054D8B92
:10232000509169055E8B809176058B83909177053E
:102330009D83A0917805AE83B0917905BC8300910F
:102340006205109163055091640540916505809187
:10235000550590915605A0915705B09158058FA34A
:1023600098A7A9A7BAA7909151059FAFA091520530
:102370002196AFAF2197B09153052296BFAF229718
:10238000E09154052396EFAF239780915D059091DE
:102390005E05A0915F05B09160058FAB98AFA9AFC6
:1023A000BAAF9091F50424969FAF2497A091D004E2
:1023B000ADA7B09166042796BFAF2797E09165045B
:1023C000E8A3F09182012696FFAF269720914D0554
:1023D00030914E053A8B298B8091F6049091F70449
:1023E0009AA389A38091590590915A05A0915B0504
:1023F000B0915C058BAF9CAFADAFBEAF90916E0559
:102400009F8BA0916F05A88FB0917005B98FE09157
:102410007105EA8F3090720520907305F091740574
:10242000F983209175052A8330916A053B8F80914D
:102430006B058C8F90916C059D8FA0916D05AE8F73
:102440008091CF049DA5891709F466C7E989FA89A7
:10245000EF2B09F089C22796FFAD279728A1F21725
:1024600081F0A22EB12C39E23A9DC0013B9D900D26
:102470001124DC01AD57BE4FBA8BA98BAB2B09F0F1
:1024800051C0C801A52FB42F8093620590936305B6
:10249000A0936405B09365058F89988DA98DBA8D39
:1024A00080936E0590936F05A0937005B0937105AE
:1024B0008B899C89AD89BE89809366059093670559
:1024C000A0936805B09369058B8D9C8DAD8DBE8DF5
:1024D00080936A0590936B05A0936C05B0936D058E
:1024E0008B819D81AE81BC81809376059093770529
:1024F000A0937805B0937905832D922DA981BA8197
:102500008093720590937305A0937405B09375053D
:102510002496BFAD2497B093F50410924E05109207
:102520004D054CC780915005882319F01092500535
:10253000BFC080914F058F5F853019F080934F05A4
:1025400002C010924F0580914F0551E1589FC00184
:102550001124DC01A850BB4FBAA3A9A3B9E2BA9DCC
:102560009001BB9D300D1124F901ED57FE4F7F0105
:102570008081A9A1BAA18C9381819281A381B48128
:1025800023E0880F991FAA1FBB1F2A95D1F7E9A145
:10259000FAA181839283A383B483F7018581968115
:1025A000A781B08533E0880F991FAA1FBB1F3A95FA
:1025B000D1F7E9A1FAA185839683A783B087F701B4
:1025C00081859285A385B48543E0880F991FAA1F52
:1025D000BB1F4A95D1F7E9A1FAA181879287A3870A
:1025E000B487D7011D966D917D918D919C915097E7
:1025F0008B019C0153E0000F111F221F331F5A95BE
:10260000D1F7058716872787308B0E94EF386FAF89
:1026100021967FAF219722968FAF229723969FAF67
:102620002397D70195962D913D914D915C91989767
:102630000E9447386FA378A789A79AA79B01AC018E
:1026400060E070E080EA9FE30E9447386BAF7CAFA8
:102650008DAF9EAF2596BFAD2597BB23C1F02F89C7
:10266000388D498D5A8D6F89788D898D9A8D0E940C
:102670009F3AF701618B728B838B948BFF89FB8B65
:10268000288D2C8B398D3D8B4A8D4E8B0DC0D701FB
:1026900051966D917D918D919C9154970E943E3BF6
:1026A0006B8B7C8B8D8B9E8B1FAA18AE19AE1AAECE
:1026B000B9E2BA9D9001BB9D300D1124F901ED578F
:1026C000FE4F4F01C1A0D2A0E3A0F4A0A701960144
:1026D00060E070E080E09FE30E94473869877A8776
:1026E0008B879C872596FFAD2597FF23E9F122E094
:1026F00020936105D40195964D905D906D907C90EE
:10270000989751968D909D90AD90BC905497A5014F
:1027100094010E949F3A9B01AC01C301B2010E9447
:1027200047378B0189879D8720E030E0A9010E940F
:102730003D3887FF1EC1A7019601C701B6010E945F
:102740004837A30192010E949F3A9B01AC01C50149
:10275000B4010E9447370E943E3B6F8B788F898F70
:102760009A8F3F82288618C110926105F401F5A165
:10277000FF83D4019696BC91B887F40107A110A5F8
:10278000E8A1EF5FE23109F4E0E02796FFAD27977B
:10279000EF1789F029E22E9FF0011124ED57FE4F2B
:1027A00061897289838994890E943E3B6F8B788FFF
:1027B000898F9A8F04C01F8A188E198E1A8E2F89BE
:1027C000388D498D5A8D6F89788D898D9A8D0E94AB
:1027D0009F3A2B013C0149E24A9D90014B9D300DEF
:1027E0001124C9018D579E4F5C01DC0151962D913A
:1027F0003D914D915C9154972D873E874F87588B23
:10280000A30192016D857E858F8598890E94473747
:102810009B01AC0169857A858B859C850E949F3AD6
:102820009B01AC016F817885C8010E94483720E088
:1028300030E040E05FE30E949F3A362E272E8983E6
:102840009A8320E030E0A9010E945F3A18160CF04C
:1028500097C02F813885A801632D722D89819A81B7
:102860000E943D3887FF72C0F501858C968CA78C3D
:10287000B0A0A3019201C501B4010E9447379B019A
:10288000AC0169857A858B859C850E949F3A6B8314
:102890007D838E839C83232D322D49815A810E9412
:1028A0003D3887FF34C0C501B4010E943E3B6B8FA9
:1028B0007C8F8D8F9E8FA50194016D857E858F8580
:1028C00098890E943D38811106C0F1E0F0936105BE
:1028D00009831A8361C02D853E854F855889C501BE
:1028E000B4010E9447379B01AC0169857A858B85CD
:1028F0009C850E949F3A9B01AC016F817885C8013D
:102900000E9447376F83788789839A8345C0A701E0
:102910009601C701B6010E944837232D322D498107
:102920005A810E949F3AA30192010E9448370E9457
:102930003E3B6B8F7C8F8D8F9E8F3F8228863B82A4
:102940002D8229812E833A813C8326C042E0409328
:10295000610509831A835B895B8F8C898C8F9D89C4
:102960009D8FAE89AE8F18C03F82288659874D87CC
:1029700017C03F8228861F8A188E198E1A8E10C0A3
:10298000BF89BB8FE88DEC8FF98DFD8F2A8D2E8F3F
:102990001F82188619821A8200E010E019861D86AF
:1029A00024965FAD2497452F50E05CA74BA786E0A7
:1029B000849FF001859FF00D1124EF52FB4F809111
:1029C0004F058283A989BA899596BC91BAABE989EA
:1029D000FA89F6A1FBABA989BA899796BC9128968A
:1029E000BFAF2897E989FA89F0A52996FFAF299703
:1029F0002BAD3CAD4DAD5EAD6AA97BA98B2F9F2F52
:102A00000E9447376EA77FA788AB99AB20E030E0E4
:102A1000A9010E943D3887FF04C01EA61FA618AA60
:102A200019AA209161052F8F2AA83BA92F963FAFA5
:102A30002F9728964FAD28972E964FAF2E97299611
:102A40003FAC29978EE3C82E83ECD82E8EE2E82E79
:102A500089E3F82E412C512C3201CBA2DCA2EDA24D
:102A6000FEA29F8D992321F0913009F496C0D6C023
:102A7000A989BA8991962D913D914D915C91949738
:102A8000C701B6010E949F3A4B015C0120E030E093
:102A900040E05FE30E949F3A9B01AC016B897C8917
:102AA0008D899E890E9448379B01AC01C701B60100
:102AB0000E949F3A9B01AC01622D2F967FAD2F970C
:102AC0002E968FAD2E97932D0E944737262E2F9648
:102AD0007FAF2F972E968FAF2E97392E2F81388567
:102AE00049815A810E943D3887FF4AC02F8138852D
:102AF00049815A816AA97BA928968FAD2897299682
:102B00009FAD29970E9447379B01AC010E9448372F
:102B10006B017C012B8D3C8D4D8D5E8D6B897C898D
:102B20008D899E890E9448379B01AC01C701B6017F
:102B30000E9447386B017C012B813D814E815C8175
:102B40006F81788589819A810E943D38811103C007
:102B5000B2E0BF8F02C0E1E0EF8FFB8DFB8B2C8DCD
:102B60002C8B3D8D3D8B4E8D4E8B2F8058852F9617
:102B70005FAF2F9789812E968FAF2E973A80F0C046
:102B8000A50194016B897C898D899E890E944837B3
:102B90006B8B7C8B8D8B9E8BE3C0A70196016B8D1D
:102BA0007C8D8D8D9E8D0E949F3A9B01AC01622D84
:102BB0002F967FAD2F972E968FAD2E97932D0E9437
:102BC00047374B015C012B813D814E815C810E9426
:102BD0003D3887FFBDC02B813D814E815C81622DD8
:102BE0002F967FAD2F972E968FAD2E97932D0E9407
:102BF00047372B8D3C8D4D8D5E8D0E9447386B0184
:102C00007C012B809D812F969FAF2F97AE812E96B2
:102C1000AFAF2E973C80B2E0BF8FA2C0E989FA899E
:102C200021A132A143A154A1C701B6010E949F3A3C
:102C30004B015C019B01AC016B897C898D899E896C
:102C40000E945F3A18160CF054C020E030E040E0DB
:102C50005FE3C501B4010E949F3A9B01AC016B89FF
:102C60007C898D899E890E9447379B01AC01C701F1
:102C7000B6010E949F3A9B01AC01622D2F967FAD59
:102C80002F972E968FAD2E97932D0E9447372A9619
:102C90006FAF2A972B967FAF2B972C968FAF2C97E1
:102CA0002D969FAF2D97980149855D850E945F3ACB
:102CB0001816FCF4A50194016B897C898D899E8985
:102CC0000E9447376B8B7C8B8D8B9E8B2A962FAC0B
:102CD0002A972B96FFAD2B972F96FFAF2F972C9609
:102CE0002FAD2C972E962FAF2E972D963FAC2D976C
:102CF00037C0980149855D85622D2F967FAD2F974E
:102D00002E968FAD2E97932D0E9447379B01AC01D5
:102D10000E9448376B017C012F89388D498D5A8D6F
:102D20006B897C898D899E890E9448379B01AC0103
:102D3000C701B6010E9447386B017C01202E2F96F7
:102D40001FAF2F9739852E963FAF2E973D8408C031
:102D5000282C2F969FAE2F972E96AFAE2E973B2CFA
:102D6000A7019601C301B2010E9448372B013C0123
:102D70002BA13CA14DA15EA10E943D3887FF07C059
:102D8000A30192016BA17CA18DA19EA163C02EA580
:102D90003FA548A959A9622D2F967FAD2F972E9652
:102DA0008FAD2E97932D0E945F3A18160CF442C0F7
:102DB0004F8D40936105222D2F963FAD2F972E9674
:102DC0004FAD2E97532D6FA178A589A59AA50E9486
:102DD0009F3A6F8F7BA38EA79AAB0E9426386B0118
:102DE0007C016FAD21967FAD219722968FAD229702
:102DF00023969FAD23970E9426384B015C01A701C3
:102E000096010E9447370E94C0386BAB7CAB8DABFC
:102E10009EABA6E08BA59CA5A89FF001A99FF00DF5
:102E20001124EF52FB4F2BA93CA931832083232B84
:102E300049F1B5C02EE333EC4EE259E36BA17CA11E
:102E40008DA19EA10E9448376BA37CA38DA39EA356
:102E5000A30192010E9447376B017C0198014985CB
:102E60005D85622D2F967FAD2F972E968FAD2E9775
:102E7000932D0E945F3A18160CF4F3CD5F8D50939A
:102E8000610599CF25968FAD2597882309F487C0D2
:102E9000C801A985BD858093620590936305A093C1
:102EA0006405B09365058F89988DA98DBA8D80933F
:102EB0006E0590936F05A0937005B09371058B8D8F
:102EC0009C8DAD8DBE8D80936A0590936B05A0930C
:102ED0006C05B0936D058B819D81AE81BC81809323
:102EE000760590937705A0937805B09379058F8147
:102EF0009885A981BA818093720590937305A093F8
:102F00007405B093750524969FAD24979093F504AE
:102F1000A989BA89B0934E05A0934D052BAD3CAD60
:102F20004DAD5EAD2093590530935A0540935B0536
:102F300050935C0538A13093650449A15AA1509380
:102F4000F7044093F6048FA198A5A9A5BAA580938C
:102F5000550590935605A0935705B09358059DA528
:102F60009093D00410926605109267051092680540
:102F70001092690510925D0510925E0510925F0532
:102F800010926005C0925105D0925205E09253050F
:102F9000F09254052FA138A549A55AA56FC12FA9B4
:102FA00038AD49AD5AADC301B2010E9448372B017B
:102FB0003C012F8D3BA14EA55AA9C501B4010E9429
:102FC00047379B01AC01C301B2010E9447384B0156
:102FD0005C012F8D3BA14EA55AA9C701B6010E94E5
:102FE0004737A50194010E949F3A6FAB78AF89AF34
:102FF0009AAF20EC31EE44E65EE4C501B4010E94D4
:103000009F3A0E9426380E94C038603DB7E07B0797
:103010008105910560F446E02BA53CA5429FF00197
:10302000439FF00D1124EF52FB4F158253C0603ABD
:103030005FE075078105910560F426E0ABA5BCA5AE
:103040002A9FF0012B9FF00D1124EF52FB4F31E02E
:1030500011C060344FE174078105910568F426E0E2
:10306000ABA5BCA52A9FF0012B9FF00D1124EF52B8
:10307000FB4F32E035830CC0A6E04BA55CA5A49FB6
:10308000F001A59FF00D1124EF52FB4FB3E0B58383
:1030900046E02BA53CA5429FF001439FF00D112473
:1030A000EF52FB4F2581022E04C0969587957795A8
:1030B00067950A94D2F7ABA9BCA902C0AA0FBB1F9F
:1030C0002A95E2F7B183A08361157105B1E08B0702
:1030D000910568F446E02BA53CA5429FF001439F73
:1030E000F00D1124EF52FB4F7483638304C08FEF04
:1030F0009FEF94838383BDA4B39496E0B91201C07B
:10310000B12C980149855D85622D2F967FAD2F9753
:103110002E968FAD2E97932D0E945F3A1816ECF4E1
:10312000822D2F969FAD2F972E96AFAD2E97B32D54
:10313000E989FA8985A396A3A7A3B0A7FF8DFFAF5E
:103140002BA121962FAF21973EA522963FAF229724
:103150004AA923964FAF2397D5C020E030E0A901BC
:10316000622D2F967FAD2F972E968FAD2E97932D94
:103170000E945F3A18160CF0AEC0C801A985BD8543
:103180008093620590936305A0936405B0936505F1
:103190008F89988DA98DBA8D80936E0590936F0558
:1031A000A0937005B09371058B8D9C8DAD8DBE8DF8
:1031B00080936A0590936B05A0936C05B0936D05A1
:1031C0008B819D81AE81BC8180937605909377053C
:1031D000A0937805B09379058F819885A981BA81EC
:1031E0008093720590937305A0937405B093750551
:1031F0005DA55093F50489899A8990934E05809333
:103200004D052BAD3CAD4DAD5EAD209359053093D2
:103210005A0540935B0550935C0538A130936504D3
:1032200049A15AA15093F7044093F6048FA198A5A1
:10323000A9A5BAA58093550590935605A093570567
:10324000B0935805B092D0041092660510926705AD
:10325000109268051092690510925D0510925E0546
:1032600010925F0510926005C0925105D0925205F0
:10327000E0925305F09254059C01AD01C701B601DF
:103280000E944738A989BA8995966D937D938D934D
:103290009C9398970E9431118091650480938201DC
:1032A000C25BDF4F0FB6F894DEBF0FBECDBFDF911C
:1032B000CF911F910F91FF90EF90DF90CF90BF9033
:1032C000AF909F908F907F906F905F904F903F90C6
:1032D0002F900C94EE242796BFAD2797E8A1BE1738
:1032E00079F08E2F8F5F823109F480E0F8A1269665
:1032F0002FAD2697F21303C026968FAF269788A38B
:103300001A8A198A59854D853F8028843DA52496BF
:103310003FAF2497BDA694C8C801A52FB42F8093B2
:10332000620590936305A0936405B09365058F894A
:10333000988DA98DBA8D80936E0590936F05A0939B
:103340007005B09371058B899C89AD89BE89809386
:10335000660590936705A0936805B09369058B8D0A
:103360009C8DAD8DBE8D80936A0590936B05A09367
:103370006C05B0936D058B819D81AE81BC8180937E
:10338000760590937705A0937805B0937905832D02
:10339000922DA981BA818093720590937305A093B1
:1033A0007405B09375052496AFAD2497A093F504EA
:1033B000E989FA89F0934E05E0934D052BAD3CADBC
:1033C0004DAD5EAD2093590530935A0540935B0592
:1033D00050935C0538A13093650449A15AA15093DC
:1033E000F7044093F6048FAD21969FAD2197229666
:1033F000AFAD22972396BFAD23978093510590934D
:103400005205A0935305B09354058FA198A5A9A583
:10341000BAA58093550590935605A0935705B09390
:1034200058052FA938AD49AD5AAD20935D053093AD
:103430005E0540935F05509360053DA53093D00431
:1034400026964FAD269740938201C25BDF4F0FB6A1
:10345000F894DEBF0FBECDBFDF91CF911F910F91CA
:10346000FF90EF90DF90CF90BF90AF909F908F90A4
:103470007F906F905F904F903F902F900895809134
:103480005706682F90E020915806422F80FD94E067
:10349000822F817020FD80E261FD986041FD806493
:1034A00062FD906142FD80689093AA048093A90414
:1034B00008951F920F920FB60F9211248F939F932E
:1034C0008BB19091AA049C71837E892B8BB915BC1A
:1034D0009F918F910F900FBE0F901F901895809124
:1034E0006F008D7F80936F0080918100887F816065
:1034F000809381001092AB04809159068F3F21F494
:103500009091B106992349F09091AE06943029F03C
:1035100090E00E94702A81E001C080E090916306F3
:1035200092FF02C091E08927882311F0289A08951C
:10353000289808950E946F1A8BE2EFE4F5E0DF010E
:103540001D928A95E9F783E2ECEAF4E0DF011D922F
:103550008A95E9F710924E0510924D051092CF040E
:103560001092F50481E08093D0041092AB040E9485
:103570003F1A8BB1837E9091AA04892B8BB98BB1B2
:103580008F719091A904892B8BB908951F920F9286
:103590000FB60F9211242F933F934F935F936F9326
:1035A0007F938F939F93AF93BF93EF93FF938091FC
:1035B000AB04811110C28BB19091BB04907E8F71CE
:1035C000892B8BB98BB1837E9091BA04892B8BB9EF
:1035D0008091B90486BD82E085BD81E08093AB0413
:1035E00078948091CD049091CE04892B09F0ADC0E0
:1035F0008091CF049091F504981709F49BC0E09155
:10360000CF042E2F30E086E0E89FF0011124EF5226
:10361000FB4FF093CE04E093CD048381948190938B
:10362000890080938800808191819093C904809360
:10363000C804E2818091CA048E1761F1E093CA0444
:1036400081E1E89FF0011124E850FB4FF093CC0496
:10365000E093CB0485859685A785B089B695A79517
:10366000979587958093B4049093B504A093B6047E
:10367000B093B7048093B0049093B104A093B204C4
:10368000B093B3048093AC049093AD04A093AE04C4
:10369000B093AF04E091CB04F091CC049091A904D5
:1036A000808189278093BB0486E0829FD001839F1D
:1036B000B00D1124AF52BB4F15962C918181928190
:1036C000A381B481022E04C0B695A79597958795DE
:1036D0000A94D2F78093BC049093BD04A093BE04D7
:1036E000B093BF0485819681A781B085022E04C066
:1036F000B695A795979587950A94D2F78093C004BD
:103700009093C104A093C204B093C30481859285B1
:10371000A385B48504C0B695A795979587952A95F6
:10372000D2F78093C4049093C504A093C604B093C9
:10373000C7040BC00E946F1A9FB7F8948091B0061F
:1037400084608093B0069FBF46C18091BF068130E0
:10375000B1F486B1807290917306891781F010924E
:10376000BF068CE0E2EBF6E0A0ECB6E001900D9233
:103770008A95E1F78091B00680648093B00610923C
:10378000BA044091BC045091BD046091BE04709194
:10379000BF048091AC049091AD04A091AE04B091AF
:1037A000AF04840F951FA61FB71F8093AC0490939E
:1037B000AD04A093AE04B093AF04E091CB04F091BC
:1037C000CC044585568567857089481759076A076F
:1037D0007B0768F524E02093BA0445855685678504
:1037E0007089841B950BA60BB70B8093AC04909348
:1037F000AD04A093AE04B093AF0420818091B206D3
:103800009091B306A091B406B091B50625FF04C00F
:103810000197A109B10903C00196A11DB11D8093B3
:10382000B2069093B306A093B406B093B506409148
:10383000C0045091C1046091C2047091C30480918E
:10384000B0049091B104A091B204B091B304840F7C
:10385000951FA61FB71F8093B0049093B104A09347
:10386000B204B093B30445855685678570894817BF
:1038700059076A077B0778F52091BA0428602093DE
:10388000BA044585568567857089841B950BA60B00
:10389000B70B8093B0049093B104A093B204B0939B
:1038A000B30420818091B6069091B706A091B80626
:1038B000B091B90626FF04C00197A109B10903C060
:1038C0000196A11DB11D8093B6069093B706A093F3
:1038D000B806B093B9064091C4045091C5046091F4
:1038E000C6047091C7048091B4049091B504A0916E
:1038F000B604B091B704840F951FA61FB71F80931D
:10390000B4049093B504A093B604B093B70445856E
:10391000568567857089481759076A077B0778F5C8
:103920002091BA0420612093BA04458556856785A5
:103930007089841B950BA60BB70B8093B4049093EE
:10394000B504A093B604B093B70420818091BA0661
:103950009091BB06A091BC06B091BD0627FF04C0A4
:103960000197A109B10903C00196A11DB11D809362
:10397000BA069093BB06A093BC06B093BD06809197
:10398000AE06843039F49091BE068091BA04892342
:103990008093BA048091C8049091C90401979093D0
:1039A000C9048093C804892B69F41092CE04109244
:1039B000CD048091CF048F5F8093CF04863011F4C3
:1039C0001092CF049091AA048091BA048927809321
:1039D000BA041092AB04FF91EF91BF91AF919F9108
:1039E0008F917F916F915F914F913F912F910F90A8
:1039F0000FBE0F901F9018958091630682FF02C042
:103A0000289A01C028988091AE068C70A1F0809110
:103A1000A9048093BB048091AA048093BA04809186
:103A20005606880F845081958093B90480916F0069
:103A3000826080936F00089569E080E090E00E94CA
:103A4000EB044DE450E066E276E081E090E00C9417
:103A50000D052DE0829FC00111244CE050E09E5FD7
:103A60000C940D051F93CF93DF93182FEB018DE07E
:103A7000189FB00111247E5F4CE050E0CE010E94FF
:103A8000A504892B59F48CE0FE0111928A95E9F77F
:103A9000BE01812F0E94291D80E001C081E0DF91DD
:103AA000CF911F910895EF92FF920F931F93CF93A1
:103AB000DF93CDB7DEB72C970FB6F894DEBF0FBEFD
:103AC000CDBF182F80FFC1C08AE08093560689E1E0
:103AD00080935906109257061092580683E08093FF
:103AE0005A068AE097EDA3E2BCE380935B069093CD
:103AF0005C06A0935D06B0935E068FE692E1A3E0BC
:103B0000BBE380935F0690936006A0936106B09339
:103B100062061092640680E090E0A8ECB1E4809325
:103B2000650690936606A0936706B093680680E0EA
:103B300090E0AAEFB3E48093690690936A06A0939D
:103B40006B06B0936C062AEF30E030936E0620933C
:103B50006D0640E050E060E87FE340936F065093CD
:103B6000700660937106709372061092630640E0CF
:103B700050E06AE773E4409326065093270660936B
:103B800028067093290640932A0650932B066093CB
:103B90002C0670932D0640932E0650932F066093AB
:103BA0003006709331068093320690933306A093CB
:103BB0003406B09335068093360690933706A0936B
:103BC0003806B093390680933A0690933B06A0934B
:103BD0003C06B0933D0680E090EAACE0B7E4809309
:103BE0003E0690933F06A0934006B0934106809313
:103BF000420690934306A0934406B09345068093F3
:103C0000460690934706A0934806B093490680E085
:103C100090E0A8E4B3EC80934A0690934B06A093FF
:103C20004C06B0934D0680934E0690934F06A0939A
:103C30005006B09351068093520690935306A0937A
:103C40005406B09355060E941C1D11FF10C0CE01F2
:103C500001967C018CE0F70111928A95E9F700E06A
:103C6000B701802F0E94291D0F5F0830C9F712FF8E
:103C70000AC060E080E093E00E94EB0460E081E530
:103C800093E00E94EB0413FF05C060E08EEA93E02E
:103C90000E94EB042C960FB6F894DEBF0FBECDBF8A
:103CA000DF91CF911F910F91FF90EF9008951F9298
:103CB0000F920FB60F9211242F933F934F935F9360
:103CC0006F937F938F939F93AF93BF93EF93FF93E4
:103CD0008091C6008F33A9F050F4883109F1813208
:103CE00011F59FB7F8948091B006886015C08034B4
:103CF00071F08E37C1F49FB7F8948091B00682605E
:103D00000BC09FB7F8948091B006816005C09FB743
:103D1000F8948091B00680628093B0069FBF14C073
:103D20000E947B2A11C0E091810191E09E0F9038A2
:103D300009F490E020918001921731F0F0E0E0501A
:103D4000FF4F808390938101FF91EF91BF91AF91DD
:103D50009F918F917F916F915F914F913F912F91A3
:103D60000F900FBE0F901F9018951F920F920FB6D5
:103D70000F9211248F939F93EF93FF938091A80448
:103D8000E82FF0E0E859FB4F90819093C6008F5FD9
:103D9000803409F480E08093A8049091670489132B
:103DA00005C08091C1008F7D8093C100FF91EF918C
:103DB0009F918F910F900FBE0F901F901895E091DB
:103DC000670491E09E0F903431F490E004C020919C
:103DD000B00624FD0FC02091A8049217C1F3F0E0B3
:103DE000E859FB4F8083909367048091C100806203
:103DF0008093C1000895CF93C82F83E095E00E947F
:103E00005C244C2F50E0FA013197E631F10580F542
:103E1000EB58FF4F0C94F53B8BEE94E002C089ED1C
:103E200094E00E945C242BC087EC94E0FACF8DEBE9
:103E300094E0F7CF8CEA94E0F4CF8DE994E0F1CFF1
:103E40008CE794E0EECF83E794E0EBCF88E694E054
:103E5000E8CF85E594E0E5CF87E494E0E2CF81E325
:103E600094E0DFCF8DE194E0DCCF89E094E0D9CF1E
:103E700087EF93E00E945C248C2F0E944C2484EFF7
:103E800093E0CF910C945C24CF9385E398E00E945B
:103E90005C24C0E06C2F80EC96E00E947F100E94B2
:103EA000FE23C23021F083E398E00E945C24CF5FC0
:103EB000C33081F781E398E00E945C248091CC06B6
:103EC0000E944C248DE298E0CF910C945C24FF92E8
:103ED0000F931F93CF93DF9389E298E00E945C24B5
:103EE000809156060E944C2480E198E00E945C2458
:103EF000809159060E944C2482EF97E00E945C2436
:103F0000809157060E944C2489ED97E00E945C2422
:103F1000809157060E94582482ED97E00E945C240D
:103F2000809158060E944C248AEB97E00E945C2402
:103F3000809158060E94582483EB97E00E945C24ED
:103F40008091630682FB882780F90E944C2482E9D5
:103F500097E00E945C248091630686FB882780F9A5
:103F60000E944C2482E797E00E945C2480916306C3
:103F7000881F8827881F0E944C2482E597E00E94B2
:103F80005C2480915A060E944C248CE397E00E94A6
:103F90005C2480915A060E94582484E397E00E9492
:103FA0005C2460915B0670915C0680915D06909147
:103FB0005E060E94EC2384E197E00E945C246091FD
:103FC0005F067091600680916106909162060E9482
:103FD000EC2389EF96E00E945C2480916306817057
:103FE0000E944C248CED96E00E945C248091630634
:103FF00085FB882780F90E944C2481EC96E00E9482
:104000005C248091630683FB882780F90E944C24FE
:1040100086EA96E00E945C24809163068295817016
:104020000E944C248AE896E00E945C2480916406F9
:104030000E944C2480E796E00E945C2480916406F4
:104040000E94582488E696E00E945C2460916506F0
:104050007091660680916706909168060E94EC2335
:104060008BE496E00E945C246091690670916A0678
:1040700080916B0690916C060E94EC238EE296E094
:104080000E945C2480916D060E944C248FE096E093
:104090000E945C2460916F06709170068091710699
:1040A000909172060E94EC2386EF95E00E945C24BA
:1040B00084E6F82EC0E006E216E0D0E084EF95E05A
:1040C0000E945C248D2F8F0D0E944C2482EF95E07E
:1040D0000E945C24C23079F0F801C330C1F0C130D5
:1040E00029F0608171818281938118C06485758512
:1040F0008685978513C020E030E041E655E4F8015D
:10410000608D718D828D938D0E94473807C084A188
:1041100095A1A6A1B7A1BC01CD0190580E94EC23A6
:104120008FEE95E00E945C24D13029F0D23031F03E
:104130008DEE95E005C08BEE95E002C089EE95E02E
:104140000E945C24C23051F0C33059F0C13019F0E4
:104150008FED95E008C08DEC95E005C08CEB95E007
:1041600002C08CEA95E00E945C2488EA95E00E94F7
:104170005C24DF5F0C5F1F4FD33009F09FCFFAE064
:10418000FF0ECF5F8CE8F81296CFDF91CF911F9191
:104190000F91FF900895811104C08AE793E00C9479
:1041A0005C240C94FB1E9FB7F894EDEAF6E0838143
:1041B000826083839FBF08952F923F924F925F92B8
:1041C0006F927F928F929F92AF92BF92CF92DF9227
:1041D000EF92FF920F931F93CF93DF93CDB7DEB78C
:1041E00068970FB6F894DEBF0FBECDBFBB24B39463
:1041F00099E2792E28E0622E30E2532E40E1A42E7F
:1042000050E4452E62E0362E7CE0272E1091B10658
:10421000112309F45BC0B092AE0611FF07C08EE413
:1042200095E00E945C2483E495E023C012FF07C060
:104230008EE495E00E945C2488E395E01AC013FFA9
:1042400007C08EE495E00E945C2485E295E011C0F1
:1042500014FF07C08EE495E00E945C248AE195E09B
:1042600008C015FF10C08EE495E00E945C248EE02B
:1042700095E00E945C248BE095E00E945C2484EF32
:1042800091E00E94702A10FD08C08FB7F8949091B9
:10429000B1061092B1068FBF19C082EF93E00E9461
:1042A0005C2480EE93E00E945C248FE793E00E9400
:1042B0005C249FB7F8948091B0068F7E8093B006FF
:1042C0009FBF8091B00684FFFCCFDFCF1091B00676
:1042D000112309F4AFC114FF04C081E08093AD063F
:1042E000BAC110FFF0C0E2EBF6E0DE011D96822DB0
:1042F00001900D928A95E1F78091AE068430E9F045
:1043000040F48130E9F080F0823009F583E895E0EF
:104310001CC0803179F018F4883049F018C0803220
:1043200091F0803421F013C082EA95E00EC08DE94F
:1043300095E00BC087E995E008C081E995E005C0EC
:104340008AE895E002C08DE795E00E945C248091A8
:104350005A06837039F0BE01635F7F4FCE0101962C
:104360000E94DD1080915A0680FD05C080915A069A
:1043700081FF6BC01FC086E795E00E945C246981C5
:104380007A818B819C810E94FE2384E795E00E94C4
:104390005C246D817E818F8198850E94FE2384E755
:1043A00095E00E945C2469857A858B859C850E94B6
:1043B000FE23DCCF8DE695E00E945C248AE0C82EC7
:1043C00086E0D82ECE0101967C0100E04701F6017F
:1043D00061917191819191916F0120853185428523
:1043E00053850E9448379B01AC01F70160817181C0
:1043F000828193810E944737F701608371838283B2
:104400009383023079F42091220630912306409163
:104410002406509125060E944737F7016083718377
:1044200082839383F4E0EF0EF11CF40160817181CB
:10443000828193810E94FE23023021F08BE695E079
:104440000E945C240F5F033009F680915A0682FFB8
:104450000EC085E695E00E945C24809166049091F0
:104460006504891708F48E5E891B0E944C24809194
:104470005A0683FF0EC080E695E00E945C2490916E
:10448000800180918101891708F48058891B0E945E
:104490004C2480915A0684FF0AC08AE595E00E9468
:1044A0005C240E94900443E062E00E940D2486E5B3
:1044B00095E00E945C249FB7F8948091B0068E7FAF
:1044C0008093B0069FBF812F887609F444C0809105
:1044D000AE06882349F0982F9C77A9F1883021F403
:1044E0000E943111B092AF068091AE06811102C0D8
:1044F0003092AF0616FF09C0883011F44092AE0624
:104500008091AF0688608093AF0613FF05C080914D
:10451000AE0685FFA092AE0615FF15C082EF93E0B0
:104520000E945C248EE993E00E945C248FE793E074
:104530000E945C248091AF0681FD146084608093AA
:10454000AF065092AE069FB7F8948091B006877977
:104550008093B0069FBF11FF4CC0812F887609F071
:1045600040C08091AE06882331F08075D1F18091F2
:10457000AF0681FF36C08091AF0682FF16C08091E2
:10458000F005882321F080EA9FE00E94702A809144
:10459000EF05882351F0823011F4439A02C00E9443
:1045A0004C0588EE93E00E94702A809165049091FA
:1045B0006604981791F0789EC00111248D579E4F84
:1045C000892B59F08091AF0683FD07C06092AE063B
:1045D0000E9453110E94FC1C02C01092AE06109261
:1045E000AF069FB7F8948091B0068D7F8093B00698
:1045F0009FBF12FF1FC08091AE06807379F080913B
:10460000AF0682FF05C0FFE0F093B3000E944C05A7
:104610008091AF0682608093AF0604C01092AF060F
:104620001092AE069FB7F8948091B0068B7F80936E
:10463000B0069FBF8091AE068C7711F00E94531197
:104640009091AE068091AF06903219F481FDA09250
:10465000AE068111DBCD68960FB6F894DEBF0FBEB3
:10466000CDBFDF91CF911F910F91FF90EF90DF9021
:10467000CF90BF90AF909F908F907F906F905F9002
:104680004F903F902F9008958F929F92AF92BF923C
:10469000CF92DF92EF92FF920F931F93CF93DF930E
:1046A000CDB7DEB72A970FB6F894DEBF0FBECDBFE9
:1046B0006B017C01042F20E030E0A9010E943D380D
:1046C00087FF07C08DE20E94DF1EF7FAF094F7F82B
:1046D000F094102F123060F020E030E048EC52E40B
:1046E000C701B6010E949F3A6B017C011250F2CFC4
:1046F00000FF0AC020E030E040E251E4C701B6010B
:104700000E949F3A6B017C0120E030E040E05FE3D3
:10471000C701B6010E9448370E94B938E1E0F0E0D5
:10472000EC0FFD1FE00FF11D2EE2208310E03AE0B8
:10473000832E912CA12CB12C611571058105910559
:10474000A9F0101301C01F5FEE24E394F12CEC0ECE
:10475000FD1EE10EF11CA50194010E94B43B605DB9
:10476000F7016083B901CA011F5FE6CF80E310172C
:1047700048F4E1E0F0E0EC0FFD1FE10FF11D808354
:104780001F5FF5CF10130BC012E0100F0F5FE1E0B9
:10479000F0E0EC0FFD1FE00FF11D80E3808311239B
:1047A00041F0FE01E10FF11D80810E94DF1E1150DA
:1047B000F6CF2A960FB6F894DEBF0FBECDBFDF91BD
:1047C000CF911F910F91FF90EF90DF90CF90BF900E
:1047D000AF909F908F90089543E00C9444232091D4
:1047E000630620FF08C02BE832E441E25DE30E944B
:1047F0009F3A41E001C040E00C94442320916306BD
:1048000020FF08C02BE832E441E25DE30E949F3ABA
:1048100044E001C043E00C944423EF92FF920F93D5
:104820001F93CF93DF931F92CDB7DEB7362FEDB630
:10483000FEB66DB77EB7641B71090FB6F8947EBFE4
:104840000FBE6DBF0DB71EB70F5F1F4F202FF801B2
:104850009E2F921B941728F4632F0E94A83B9193DC
:10486000F7CF442361F0F801E40FF11D3197808107
:10487000805D49830E94DF1E49814150F2CF0FB60F
:10488000F894FEBE0FBEEDBE0F90DF91CF911F9149
:104890000F91FF90EF9008958A3020F0843620F039
:1048A00043E003C041E001C042E06AE00C940D2403
:1048B00048E062E00C940D24CF93DF93FC018491D7
:1048C000EF012196882321F00E94DF1EFE01F7CF21
:1048D000DF91CF9108954F925F926F927F928F9266
:1048E0009F92AF92BF92CF92DF92EF92FF920F937F
:1048F0001F93CF93DF9300D000D0CDB7DEB72DEA62
:1049000036E0D9011596CD90DD90ED90FC9018978A
:1049100019964D905D906D907C901C971D968D9191
:104920009D910D90BC91A02D89839A83AB83BC830C
:104930000BE715E0C301B2016C0D7D1D8E1D9F1D9F
:1049400022E0822E912CA12CB12CA50194010E9471
:10495000D63BF8012083318342835383C701B601DC
:104960006419750986099709A50194010E94D63B2F
:10497000D80114962D933D934D935C93179789819D
:104980009A81AB81BC81F80180879187A287B38728
:104990000F900F900F900F90DF91CF911F910F917B
:1049A000FF90EF90DF90CF90BF90AF909F908F904F
:1049B0007F906F905F904F9008958CE1EBE7F5E06A
:1049C000DF011D928A95E9F7109265041092660442
:1049D00081E080937A051092820108952F923F9290
:1049E0004F925F926F927F928F929F92AF92BF92FF
:1049F000CF92DF92EF92FF920F931F93CF93DF93AB
:104A0000C0916604C11101C0C2E1C150D0918201C0
:104A1000CD1709F41BC1EC2EF12C29E2C29F8001B5
:104A200011240D571E4FF801A588B688C788D08C71
:104A300061A172A183A194A19B01AC010E9448379E
:104A4000F80125A136A147A150A50E949F3A4B012C
:104A50008C019B01AC01B501C6010E943D3887FD68
:104A600002C05401680189E28E9DF0018F9DF00D16
:104A70001124ED57FE4FC501D601818B928BA38B7C
:104A8000B48BC11101C0C2E1C150CD1761F029E260
:104A90002E9DC0012F9D900D11249C012D573E4F3E
:104AA0007901D9E233C080916504D8135EC00E94B9
:104AB00031115BC0AC2EB12CDA9DC001DB9D900D95
:104AC0001124FC01ED57FE4F6F01C11101C0C2E17D
:104AD000C15080916504C81302C00E943111DA9D53
:104AE0008001DB9D100D11240D571E4FF8018588A4
:104AF0009688A788B08CA501940161897289838901
:104B000094890E943D38811106C07601809182010E
:104B1000C813D0CF2AC0F80161A172A183A194A1CA
:104B20009B01AC010E944837F80125A136A147A19D
:104B300050A50E949F3AF7012189328943895489FF
:104B40000E9448372B013C01A50194010E943D3889
:104B5000F80187FF05C0418A528A638A748AD5CFDB
:104B6000818A928AA38AB48AD0CFD0918201F9E255
:104B7000DF9F800111240D571E4FC1E0CD0FC231C0
:104B800009F4C0E02090660489E2382EC21509F4C9
:104B90005BC0CC2ED12C3C9CC0013D9C900D1124BF
:104BA0009C012D573E4F7901F80141885288638856
:104BB0007488F90181889288A388B488A50194013A
:104BC000C301B2010E943D3887FF24C0F80161A1F2
:104BD00072A183A194A19B01AC010E944837F80106
:104BE00025A136A147A150A50E949F3A9B01AC0187
:104BF000C301B2010E9448372B013C01A501940179
:104C00000E943D3887FF06C0F701418A528A638AB5
:104C1000748ADC2F3C9CF0013D9CF00D1124ED5773
:104C2000FE4F258936894789508D6189728983892C
:104C300094890E943D38811101C0DC2FCF5FC231C1
:104C400009F4C0E08701A2CFD0938201DF91CF9118
:104C50001F910F91FF90EF90DF90CF90BF90AF909A
:104C60009F908F907F906F905F904F903F902F908C
:104C700008952F923F924F925F926F927F928F9200
:104C80009F92AF92BF92CF92DF92EF92FF920F93DB
:104C90001F93CF93DF93CDB7DEB7C454D1090FB6BE
:104CA000F894DEBF0FBECDBF9CA78BA74BA35CA320
:104CB0006DA37EA323962FAF2397209166042FA781
:104CC000222E312C39E2239F800111240D571E4FD3
:104CD000D8011D961D921D921D921C925097F801AD
:104CE00015A216A217A210A6108289E996E7A6E9D6
:104CF000BEE781A392A3A3A3B4A32091260630917B
:104D000027064091280650912906ABA5BCA56D91B8
:104D10007D918D919C910E949F3A0E946C3A2B014B
:104D20003C016D877E878F87988B20912A06309172
:104D30002B0640912C0650912D06EBA5FCA5648115
:104D40007581868197810E949F3A0E946C3A698B97
:104D50007A8B8B8B9C8BC0907B05D0907C05E090F0
:104D60007D05F0907E05530142018C189D08AE0828
:104D7000BF0840907F05509080056090810570903D
:104D800082056B017C01C418D508E608F708A50167
:104D900094012C0D3D1D4E1D5F1D2F8F38A349A37F
:104DA0005AA369017A0157FF08C0F094E094D094A7
:104DB000C094C11CD11CE11CF11CD8011196CD92EC
:104DC000DD92ED92FC921497461A570A680A790A06
:104DD000480C591C6A1C7B1C89E2829DF001839D52
:104DE000F00D1124ED57FE4FD301C20177FE07C02D
:104DF00088279927DC0184199509A609B7098583B5
:104E00009683A783B08720912E0630912F0640917C
:104E100030065091310628AF39AF4AAF5BAF809171
:104E2000830590918405A0918505B09186058CAF8E
:104E30009DAFAEAFBFAFDE011196BAA7A9A7E6E25C
:104E4000F6E0F9ABE8AB2FA549E2249F90011124CD
:104E500022963FAF2EAF2297F8A7EFA3BDABACAB26
:104E600000E010E01B8E29E2229DC001239D900DE1
:104E70001124DC01AD57BE4FBE8FAD8F1D96BFAB69
:104E8000AEABED8DFE8DB596FBABEAAB2D8D3E8DB9
:104E9000275F3F4F25963FAF2EAF25972296EEAD69
:104EA000FFAD2297E00FF11F9F012D573E4FEEA956
:104EB000FFA980819181A281B381F90181809280D3
:104EC000A380B48088169906AA06BB0610F44C018C
:104ED0005D01AEA9BFA98D929D92AD92BC92139730
:104EE000BB8DB11105C06F8D78A189A19AA125C094
:104EF000FB8DF13059F4C301B2010E94F138AFA12A
:104F0000B8A52D913D914D915C911FC0EDE0F0E071
:104F1000EC0FFD1FE00FF11F80819181A281B38111
:104F2000F801E558FA4FC080D180E280F380BC01DF
:104F3000CD016C197D098E099F090E94F138EFA1FE
:104F4000F8A520813181428153810E9447386B014D
:104F50007C01ACA9BDA96D937D938D939D93BDAB51
:104F6000ACAB20E030E0A9010E943D3887FF0FC0C4
:104F7000BB8DBB2321F0B13021F090E803C090E25B
:104F800001C090E4ED8DFE8D8081892B8083A70187
:104F90009601C701B6010E949F3AAAA9BBA92D910B
:104FA0003D914D915C910E944837EAA9FBA960832D
:104FB000718382839383FB8DFF5FFB8FF330D9F185
:104FC0003B8D323079F5ABA5BCA518962D913D915E
:104FD0004D915C911B9768AD79AD8AAD9BAD0E94F8
:104FE0009F3A0E946C3A6D8B7E8B8F8B988FDC0181
:104FF000CB012CAD3DAD4EAD5FAD821B930BA40B31
:10500000B50BB7FF07C0B095A095909581959F4FC0
:10501000AF4FBF4F2596EEADFFAD259780839183AF
:10502000A283B3830C5F1F4F2FA138A52C5F3F4F86
:1050300038A72FA333CF0E943E3B6B017C01AAA966
:10504000BBA96D937D938D939C93139789288A2890
:105050008B2809F42BC220E030E0A9016BA17CA1D0
:105060008DA19EA10E943D3887FD24C02396BFAD2F
:105070002397BB2361F0A70196016BA17CA18DA1B1
:105080009EA10E949F3A6BA37CA38DA39EA320E0C8
:1050900030E040E85FE36BA17CA18DA19EA10E945E
:1050A0003D3887FF0FC01BA21CA2E0E8EDA3FFE381
:1050B000FEA308C029E92BA336E73CA346E94DA38C
:1050C0005EE75EA3A701960160E070E080E89FE3E1
:1050D0000E9447386BA77CA78DA79EA78BE795E01A
:1050E00098A78FA3DE011D96BA8FA98FC12CD12C52
:1050F000760129E2229DC001239D900D1124FC011F
:10510000EC55FE4FFC8FEB8FA9A5BAA58D909D9015
:10511000AD90BC9020E030E0A901C501B4010E942F
:105120003D38882309F47FC02BA53CA54DA55EA57D
:10513000C501B4010E949F3A2B013C01E9A5FAA5E3
:1051400060837183828393839B01AC0160E070E094
:1051500080E89FE30E9447384B015C01E894B7F870
:10516000A8A9B9A91C962D913D914D915C911F97CD
:10517000C501B4010E949F3A6D8F7F8F8C019B0106
:10518000AC016BA17CA18DA19EA10E943D3887FD41
:1051900006C0BD8DBBA3EF8DECA30DA31EA3AB8DED
:1051A000BC8DBC91BD8FEB8DFC8DF181FF8FAB8DE4
:1051B000BC8D12960C91129713961C91E8A9F9A92F
:1051C000208D318D428D538DC501B4010E949F3ACF
:1051D0004B015C019B01AC016D8D7F8DC8010E946C
:1051E0003D3887FD03C08D8E9F8E85018D8D9F8DEF
:1051F000D801EB8DFC8D80839183A283B383AFA113
:10520000B8A51C962D913D914D915C911F97C301BE
:10521000B2010E949F3A9B01AC01C701B6010E94F6
:1052200047376B017C01E9A5FAA53496FAA7E9A7EF
:105230002FA138A52C5F3F4F38A72FA348A959A904
:105240004C5F5F4F59AB48AB898D9A8DE817F907D2
:1052500009F05ACF809165049FA598130DC089E28B
:10526000829DF001839DF00D1124ED57FE4F118AB0
:10527000128A138A148A12C024EA30E74DE75FE3EA
:10528000C701B6010E945F3A18166CF489E2829D4C
:10529000F001839DF00D1124ED57FE4F118E128EFB
:1052A000138E148E66C024EA30E74DE75FEBC7012A
:1052B000B6010E945F3A181644F084EAC82E80E7CF
:1052C000D82E8DE7E82E8FEBF82EA701960160E02F
:1052D00070E080E89FE30E94473720E030E040E044
:1052E0005FE30E949F3A0E943E3B6B017C0189E292
:1052F000829DF001839DF00D1124ED57FE4F20910A
:105300005B0630915C0640915D0650915E0661A19E
:1053100072A183A194A10E949F3AA70196010E94C5
:105320009F3A4B015C01A701960160E070E080E8C4
:105330009FE30E9447379B01AC01C501B4010E9465
:1053400047386B017C0120E030E0A9010E943D3824
:1053500087FF03C0C12CD12C760189E2829DF00128
:10536000839DF00D1124ED57FE4FC18ED28EE38E3A
:10537000F48E2BA13CA14DA15EA16BA17CA18DA1BE
:105380009EA10E949F3A7B018C0189E2829DF001DF
:10539000839DF00D1124ED57FE4FC701D801858F75
:1053A000968FA78FB0A3A18CB28CC38CD48C609045
:1053B00093057090940580909505909096059301C3
:1053C000A401B701C8010E943D3887FD05C0762DB4
:1053D000672D982D892D04C07E2D6F2D902F812F44
:1053E000272F362F492F582FB501C6010E943D386F
:1053F00087FD0DC09301A401B701C8010E943D388B
:1054000087FD03C05301640102C05701680189E2AE
:10541000829DF001839DF00D1124ED57FE4FC501D3
:10542000D601858B968BA78BB08F8CE0FE013196D1
:10543000A7E8B5E001900D928A95E1F7C701D80180
:105440008093930590939405A0939505B09396054A
:105450008CE0FE013D96ABE7B5E001900D928A9598
:10546000E1F780917A05809366048F5F823109F4B9
:1054700080E080937A05CC5BDF4F0FB6F894DEBFF7
:105480000FBECDBFDF91CF911F910F91FF90EF9095
:10549000DF90CF90BF90AF909F908F907F906F9054
:1054A0005F904F903F902F900C94EE24CC5BDF4F99
:1054B0000FB6F894DEBF0FBECDBFDF91CF911F9125
:1054C0000F91FF90EF90DF90CF90BF90AF909F90A3
:1054D0008F907F906F905F904F903F902F900895A6
:1054E000009741F0EFE9FFE03197F1F700C00000CD
:1054F0000197F6CF08958091B00684FD27C09FB72D
:10550000F8948091B00680618093B0069FBF8FE0D1
:105510008093B3000E944C058091AE06982F9C703A
:1055200021F49091AF06913089F49FB7843029F42B
:10553000F8948091B106806204C0F8948091B1061D
:1055400088608093B1069FBF0C946F1A08958F9264
:105550009F92AF92BF92CF92DF92EF92FF920F9302
:105560001F93CF93DF937C016B01DC01EC91F0E0A2
:10557000E956FA4F9081EF019D3221F422969181F4
:1055800001E007C09B3211F0219602C02296918162
:1055900000E0912CF0E010E020E030E0A9015E0195
:1055A000E0EDE90FEA30D0F4FF5FF93098F49110A4
:1055B0001150A5E0B0E00E94FB3BDC01CB01880F5D
:1055C000991FAA1FBB1F9C01AD012E0F311D411D4C
:1055D000511D0AC0911008C01F5F06C0EE3F41F484
:1055E000911006C0992493942196D5019C91D7CF10
:1055F000FF2309F44FC0CA01B9010E94EF384B01E3
:105600005C0120E030E0A9010E943D38882349F187
:105610001F3F64F42AE037ED43E25CE3C501B401C7
:105620000E949F3A4B015C011E5FF2CF1F3F59F46D
:105630002DEC3CEC4CEC5DE3C501B4010E949F3ABB
:105640004B015C010EC0112361F020E030E040E22C
:1056500051E4C501B4010E949F3A4B015C01115015
:10566000F2CF002351F0B7FAB094B7F8B094F60136
:1056700080829182A282B38206C0D6018D929D92D1
:10568000AD92BC921397C759D540C150F701C08362
:1056900081E001C080E0DF91CF911F910F91FF90D9
:1056A000EF90DF90CF90BF90AF909F908F90089534
:1056B000CF93DF93CDB7DEB76F970FB6F894DEBF09
:1056C0000FBECDBF8091C00082608093C000109259
:1056D000C50080E18093C4008091C1008061809307
:1056E000C1008091C10088608093C1008091C10099
:1056F00080688093C10080E090E00E94540489306B
:1057000009F013C74DE450E061E070E086E296E0F6
:105710000E94A504892B09F408C78AB18C618AB953
:10572000209A8AB1806E8AB9809181008F7E8093A1
:105730008100809181008860809381008091800049
:105740008C7F80938000809180008F708093800098
:1057500080916E00887F80936E0014BC15BC809190
:105760006E00816080936E0087B1887F87B988B1B1
:10577000876088B980916C00876080936C0080910D
:10578000680082608093680080E2EDEAF6E0DF0165
:105790001D928A95E9F781E08093AD067894909107
:1057A000630694FD8093AE06809181018093800111
:1057B0008FE3E7EEF5E0DF011D928A95E9F76AE0F5
:1057C00076E080E00E94321D811103C087E00E94D4
:1057D000FB1E239A259A8FE08093B3003B9A0E9488
:1057E0004C050E943D043D98459A0E94DD240E948C
:1057F0009A1A0E946B2462EB76E08EEF95E00E948D
:10580000DD101092AD061092B0061092B106109203
:10581000AF0682E691E00E945C248091AE06813062
:1058200069F482EF93E00E945C248CEC93E00E9488
:105830005C248FE793E00E945C242EC01092AE0699
:105840000E94641029C080919705811134C08AE7B5
:1058500093E00E945C2400E090918001809181019E
:105860008917E1F0E92FF0E0E050FF4F80819F5F62
:10587000903809F490E0909380018F3F79F08A305E
:10588000B1F4E12FF0E0E956FA4F10820E94DC20DB
:105890001091AD061123B9F210E0DDCF0E94D320A4
:1058A0000E94DC208091AD068823B1F27DCF8D303F
:1058B00009F00FC6E6CF843209F000C681E0898B7B
:1058C00080919805833481F034F4882351F0843238
:1058D00009F019C109C0873439F0883509F013C1BE
:1058E00003C086E392E0D5C0909199059111DDC582
:1058F000833409F4D1C01CF4843239F0DBC5873419
:1059000069F0883509F4EBC0D5C51091AE06187161
:1059100011F018E0CFC50E94671FCCC584E392E068
:105920000E945C248091E705823091F038F488234E
:1059300061F08130A9F48EE292E00CC0833069F00E
:10594000883071F484E292E005C081E392E002C005
:105950008BE292E00E945C240CC088E292E0FACFD5
:105960008FE192E00E945C248091E70586500E94BE
:105970004C248CE192E00E945C248091ED058A5CCD
:105980000E944C248091EB05813049F028F0823050
:1059900051F48DE092E005C087E192E002C082E11F
:1059A00092E00E945C248091E905811103C088E0A7
:1059B00092E002C083E092E00E945C248091EA05BC
:1059C000811103C08EEF91E002C089EF91E00E9447
:1059D0005C248091E805813019F484EF91E002C0E5
:1059E0008FEE91E00E945C248091EE05813049F0B9
:1059F00028F0823051F483EE91E005C08BEE91E007
:105A000002C087EE91E00E945C248091F005813015
:105A100031F040F0823051F48BED91E005C08FED14
:105A200091E002C087ED91E00E945C248091EF0537
:105A3000882329F0823039F48FEC91E002C083EDA5
:105A400091E00E945C248CEC91E00E945C248091A7
:105A5000F9050E944C2489EC91E00E945C2460913D
:105A6000F5057091F6058091F7059091F8050E9473
:105A7000EF2386EC91E00E945C246091F105709127
:105A8000F2058091F3059091F4050E94EF2382ECDA
:105A900091E00E945C240EC58091AE06823069F4CC
:105AA0000E947B2A82EF93E00E945C2489EA93E0C3
:105AB0000E945C248FE793E0ECCF81112ACF82E033
:105AC0008093AE0682EF93E00E945C2482EB93E029
:105AD0000E945C248FE793E00E945C243CC080918C
